:020000040000fa
:080000000002040000000000f2
:020000040000fa
:0400080004030000ed
:020000040000fa
:04000c00c802000026
:020000040000fa
:04001000ce0200001c
:020000040000fa
:04001400d402000012
:020000040000fa
:04001800da02000008
:020000040000fa
:04001c00e0020000fe
:020000040000fa
:0400200004030000d5
:020000040000fa
:0400240004030000d1
:020000040000fa
:0400280004030000cd
:020000040000fa
:04002c0004030000c9
:020000040000fa
:0400300004030000c5
:020000040000fa
:0400340004030000c1
:020000040000fa
:0400380004030000bd
:020000040000fa
:04003c0004030000b9
:020000040000fa
:0400400004030000b5
:020000040000fa
:0400440004030000b1
:020000040000fa
:0400480004030000ad
:020000040000fa
:04004c0004030000a9
:020000040000fa
:0400500004030000a5
:020000040000fa
:0400540004030000a1
:020000040000fa
:04005800040300009d
:020000040000fa
:04005c000403000099
:020000040000fa
:040060000403000095
:020000040000fa
:040064000403000091
:020000040000fa
:04006800040300008d
:020000040000fa
:04006c000403000089
:020000040000fa
:040070000403000085
:020000040000fa
:040074000403000081
:020000040000fa
:04007800040300007d
:020000040000fa
:04007c000403000079
:020000040000fa
:040080000403000075
:020000040000fa
:040084000403000071
:020000040000fa
:04008800040300006d
:020000040000fa
:04008c000403000069
:020000040000fa
:040090000403000065
:020000040000fa
:040094000403000061
:020000040000fa
:04009800040300005d
:020000040000fa
:04009c000403000059
:020000040000fa
:0400a0000403000055
:020000040000fa
:0400a4000403000051
:020000040000fa
:0400a800040300004d
:020000040000fa
:0400ac000403000049
:020000040000fa
:0400b0000403000045
:020000040000fa
:0400b4000403000041
:020000040000fa
:0400b800040300003d
:020000040000fa
:0400bc000403000039
:020000040000fa
:0400c0000403000035
:020000040000fa
:0400c4000403000031
:020000040000fa
:0400c800040300002d
:020000040000fa
:0400cc000403000029
:020000040000fa
:0400d0000403000025
:020000040000fa
:0400d4000403000021
:020000040000fa
:0400d800040300001d
:020000040000fa
:0400dc000403000019
:020000040000fa
:0400e0000403000015
:020000040000fa
:0400e4000403000011
:020000040000fa
:0400e800040300000d
:020000040000fa
:0400ec000403000009
:020000040000fa
:0400f0000403000005
:020000040000fa
:0400f4000403000001
:020000040000fa
:0400f80004030000fd
:020000040000fa
:0400fc0004030000f9
:020000040000fa
:0401000004030000f4
:020000040000fa
:0401040004030000f0
:020000040000fa
:0401080004030000ec
:020000040000fa
:04010c0004030000e8
:020000040000fa
:0401100004030000e4
:020000040000fa
:0401140004030000e0
:020000040000fa
:0401180004030000dc
:020000040000fa
:04011c0004030000d8
:020000040000fa
:0401200004030000d4
:020000040000fa
:0401240004030000d0
:020000040000fa
:0401280004030000cc
:020000040000fa
:04012c0004030000c8
:020000040000fa
:0401300004030000c4
:020000040000fa
:0401340004030000c0
:020000040000fa
:0401380004030000bc
:020000040000fa
:04013c0004030000b8
:020000040000fa
:0401400004030000b4
:020000040000fa
:0401440004030000b0
:020000040000fa
:0401480004030000ac
:020000040000fa
:04014c0004030000a8
:020000040000fa
:0401500004030000a4
:020000040000fa
:0401540004030000a0
:020000040000fa
:04015800040300009c
:020000040000fa
:04015c000403000098
:020000040000fa
:040160000403000094
:020000040000fa
:040164000403000090
:020000040000fa
:0402080004030000eb
:020000040000fa
:04020c00e602000006
:020000040000fa
:04021000ec020000fc
:020000040000fa
:04021400f2020000f2
:020000040000fa
:04021800f8020000e8
:020000040000fa
:04021c00fe020000de
:020000040000fa
:0402200004030000d3
:020000040000fa
:0402240004030000cf
:020000040000fa
:0402280004030000cb
:020000040000fa
:04022c0004030000c7
:020000040000fa
:0402300004030000c3
:020000040000fa
:0402340004030000bf
:020000040000fa
:0402380004030000bb
:020000040000fa
:04023c0004030000b7
:020000040000fa
:0402400004030000b3
:020000040000fa
:0402440004030000af
:020000040000fa
:0402480004030000ab
:020000040000fa
:04024c0004030000a7
:020000040000fa
:0402500004030000a3
:020000040000fa
:04025400040300009f
:020000040000fa
:04025800040300009b
:020000040000fa
:04025c000403000097
:020000040000fa
:040260000403000093
:020000040000fa
:04026400040300008f
:020000040000fa
:04026800040300008b
:020000040000fa
:04026c000403000087
:020000040000fa
:040270000403000083
:020000040000fa
:04027400040300007f
:020000040000fa
:04027800040300007b
:020000040000fa
:04027c000403000077
:020000040000fa
:040280000403000073
:020000040000fa
:04028400040300006f
:020000040000fa
:04028800040300006b
:020000040000fa
:04028c000403000067
:020000040000fa
:040290000403000063
:020000040000fa
:04029400040300005f
:020000040000fa
:04029800040300005b
:020000040000fa
:04029c000403000057
:020000040000fa
:0402a0000403000053
:020000040000fa
:0402a400040300004f
:020000040000fa
:0402a800040300004b
:020000040000fa
:0402ac000403000047
:020000040000fa
:0402b0000403000043
:020000040000fa
:0402b400040300003f
:020000040000fa
:0402b800040300003b
:020000040000fa
:0402bc000403000037
:020000040000fa
:0402c0000403000033
:020000040000fa
:0402c400040300002f
:020000040000fa
:0402c800040300002b
:020000040000fa
:0402cc000403000027
:020000040000fa
:0402d0000403000023
:020000040000fa
:0402d400040300001f
:020000040000fa
:0402d800040300001b
:020000040000fa
:0402dc000403000017
:020000040000fa
:0402e0000403000013
:020000040000fa
:0402e400040300000f
:020000040000fa
:0402e800040300000b
:020000040000fa
:0402ec000403000007
:020000040000fa
:0402f0000403000003
:020000040000fa
:0402f40004030000ff
:020000040000fa
:0402f80004030000fb
:020000040000fa
:0402fc0004030000f7
:020000040000fa
:0403000004030000f2
:020000040000fa
:0403040004030000ee
:020000040000fa
:0403080004030000ea
:020000040000fa
:04030c0004030000e6
:020000040000fa
:0403100004030000e2
:020000040000fa
:0403140004030000de
:020000040000fa
:0403180004030000da
:020000040000fa
:04031c0004030000d6
:020000040000fa
:0403200004030000d2
:020000040000fa
:0403240004030000ce
:020000040000fa
:0403280004030000ca
:020000040000fa
:04032c0004030000c6
:020000040000fa
:0403300004030000c2
:020000040000fa
:0403340004030000be
:020000040000fa
:0403380004030000ba
:020000040000fa
:04033c0004030000b6
:020000040000fa
:0403400004030000b2
:020000040000fa
:0403440004030000ae
:020000040000fa
:0403480004030000aa
:020000040000fa
:04034c0004030000a6
:020000040000fa
:0403500004030000a2
:020000040000fa
:04035400040300009e
:020000040000fa
:04035800040300009a
:020000040000fa
:04035c000403000096
:020000040000fa
:040360000403000092
:020000040000fa
:04036400040300008e
:020000040000fa
:100400000f8020000e7f24000e01880000000000f5
:10041000000020000000e000020032000001200087
:100420002002880014000700790007000000e000a7
:1004300003003a0000002000010020000200370005
:100440000000200001002000810f70000100320038
:1004500014000700000020000000e000020032004d
:1004600000000200000000009407020000000000ed
:100470000040da000000fe004440a9000000200017
:100480000000e0000300320000002000a00188000e
:100490004440a800000006008a1f78008b1f7800e7
:1004a0000000060091018800800478000000eb0045
:1004b0001a003700e284440032a0b4009905ba0063
:1004c000e284440032a0b4009906ba00e2844400f9
:1004d00032a0b4000006eb00476fde00fd07b2005b
:1004e000636ce10003003a00ebff07000000eb0043
:1004f0000a003700606ce10004003a00005deb0088
:100500008b05e900fdff3e00040037006168e10053
:10051000010032000086eb000b00070019c7ba008b
:100520001905ba000e04e00003003a000a00e000da
:10053000e0ff3a0000000600fe07b2009e018800be
:100540008a047800f5ff3700395dba008b05e900b1
:100550000c003200295dba008b05e900080032006a
:100560000c00e00003003a00e284440032a0b40032
:10057000f5ff370019ddba008b05e900faff3a00f4
:100580008904e800e184440032a0b40000000600c1
:100590000000fa008020a900ffff37000000fa00e9
:1005a0008060a900ffff37000000fa008040a9002a
:1005b000ffff37000000fa008080a900ffff37002e
:1005c0000000fa0080a0a900ffff37000000fa0039
:1005d0008020a900ffff37000000fa008060a9001a
:1005e000ffff37000000fa008040a900ffff37003e
:1005f0000000fa008080a900ffff37000000fa0029
:1006000080a0a900ffff37000000fa00ffff3700bd
:100610000000050003f0a200889fbe008a9fbe0074
:100620008c1f7800f5000700fc0033006450e100e7
:100630004f0032006420e1005200320003826c005f
:1006400007003b000905d0000306d000820f5400cc
:100650000c065d00020039000200320089017800ba
:10066000030678008582550004003d000003fd006c
:100670008103fd008502ea008b854200840f720031
:1006800002003b0060001000e08018006011b8001c
:100690000005eb007a28e1000a0039000600780026
:1006a000c75ddd00f707b200878075002d003700b9
:1006b000828171000a017800610560008180d100ab
:1006c0000080d3008502e900f9ff3b0006044000ea
:1006d0008784480002003b0060041400e0841c0092
:1006e0000988a300070032008a81710082817100ad
:1006f000610164008904d1000884d3008b05e800ff
:10070000170037000978a30013003a000b00e0003f
:10071000130034008b05e9000804440089844c0070
:100720000a4474000978a3000d003a000b00e000b1
:10073000070034008b05e9000804440089844c005c
:1007400001003a000b0020000978a300f7ff3200f7
:100750000001eb0002003700828171000a0178007d
:100760006b0007000cf0a70001f0a000b4003700f8
:100770006420e10002003a00838f6c00b400330073
:100780000801be000200be00ad003700889fbe0019
:100790008a9fbe008c1f7800980007009f003300de
:1007a00003866c006450e1002e0032006420e100fa
:1007b000330032006150e1002f0032006120e1007f
:1007c0003100320085855500eb07b000090020009c
:1007d00008042000050037000804440089844c0008
:1007e0000a0031000603430087834b0000015300d9
:1007f00081815b00f8ff33000203be000800a00007
:100800000804440089844c00f6ff3900c639dd0035
:100810008301730001003200130020008904d1001d
:100820000884d3000998a300050032000800a7003f
:100830000300a0008904d1000884d3008b05e800e0
:100840008904d1000884d3000001eb000281d200aa
:100850002f00070001f0a1000cf0a70001f0a0009c
:10086000770037006420e100790032000801be0003
:100870000200be00f7ff37006120e1007400320083
:100880006000b800f3ff37000000200001f82700e7
:10089000f0ff370014002000a4003700f4ff2f0001
:1008a000a20037000001be003f0007000470a7004f
:1008b00003f0a10003f8a30013003a006509b1009a
:1008c00010003200090035006928e10002003500ff
:1008d0000100280000000500000040008180480061
:1008e0008502e900fcff3a0000000600f88f420094
:1008f000050035008100d1000080d3008502e800aa
:10090000fcff3a00000006008000eb00000005003c
:1009100081002000618055000b003d000b0020008d
:1009200061fe2f000100e1001d0034008281710092
:10093000610164008904d1000884d3000000e8004c
:10094000faff3a00710020006100640003007000ab
:10095000020060000900320061044400e0844c00a1
:100960000988a500050032008b05e8006808e10051
:1009700002003a008904d1000884d300f20f20005d
:100980000258e10005003d00c75ddd00f907b20037
:100990008980750008007800000006000bf8270029
:1009a0008b00780000000500c70ade00f107b200e6
:1009b000f50fb20008003200e1cf42000200320021
:1009c0000170a00024000500810f700001003200ba
:1009d0000408050044000500810f700002003a0081
:1009e000140005008502e9000000400081c04800b5
:1009f000fcff3b000170a000240005000004be00c5
:100a0000e9ff07000003be000405be000200be00af
:100a1000e5ff0700844f7500000006000200be00dd
:100a20006450e100050036006420e1000200360059
:100a30000968a30001003a000800be000160a000a0
:100a40004f0678004f05be004f04be0000000600b0
:100a5000f0ff2f00f1ff2700f9ff3700889fbe004d
:100a60008a9fbe008c1f7800e4ff0700ebff330075
:100a700003866c006450e100240032006420e10031
:100a8000270032006150e100220032006120e100c5
:100a9000210032008b854200eb07b1000134b80021
:100aa000003ab8000804420089844a00013ab800bc
:100ab0000030b8008880400009014a00040033007b
:100ac0000000400081804800020149008b05e900d8
:100ad000c909dd008301700001003200130020000d
:100ae000c814de004814dd004709de001200b20021
:100af000c808de000884700085ff070001f0a1002f
:100b00000cf0a70001f0a000cdff37006120e1004c
:100b1000cfff32000801be000200be00f7ff370021
:100b20006150e100fcff3a00c9ff3700889fbe001a
:100b30008a9fbe00841f7800b0ff07004f00780036
:100b400011003300f0ff2f00838f6c0006003b0084
:100b5000040565000a00a7000800370009f0a60098
:100b60001000200008003700820f5400838f5c00c3
:100b7000030039001000200001003e0000002000aa
:100b800009f0a7000000ea004f05be004f04be00b8
:080b90000000e0000000060077
:020000040000fa
:100b98000c00fa0040079800510798004e01900099
:100ba800de0190000000200001f82300f5fe070098
:100bb800008fbe00000020000108240020079800d4
:100bc800310798001e02be002e009000be00900063
:100bd8000001be000400be009eff07000001be0029
:100be8008bfe07000001be0000c22b00e1c32400f9
:100bf800e4fe070029ff07000000780000f0a100cc
:100c08000000e90000f0a10000f0a100220e800021
:100c1800010028008100610001007000200e88009a
:100c28000080fa00000006000000fa00c1e1a900f7
:100c3800c1a1a900010e8000f0f02f000080600023
:100c4800000e8800010e800030ff2f000080600039
:100c58000020a000000e8800010e8000c0ff2f00b9
:100c6800008060000010a000000e8800f02621001f
:100c780031a82300c6ff0700c621ef00c901a8005c
:100c8800c921a800c941a800ca41a800d621ef007f
:100c9800d821ef00da21ef000080fa0000000600fa
:100ca8000e00fa00881f7800400798005207980045
:100cb8006307980018c0b3006011b8005e00900088
:100cc800ee009000f1fe07000000e0000100350092
:100cd8000044eb000804e000040032006000b800a3
:100ce80050079800610798000f00370018c0b3003c
:100cf8000200200003f823005e009000ee00900040
:100d0800e4fe07000000e00001003c000044eb00a6
:100d18000804e000040032000000200001f823006d
:100d28005007980061079800f226210033a8230095
:100d38005e009000ee00900046ff07000001be0034
:100d48000000200001f823008efe0700008fbe007f
:100d580000002000010824002007980031079800af
:100d68004e009000e20f500014003200e30f5000d4
:100d780022003200e10f500030003a001e02be008f
:100d88002e009000be0090000001be000400be00ce
:100d980030ff07000001be0000c22b00e1c32400a1
:100da80078fe0700bdfe07000000780000f0a100f3
:100db8000000e900b00e8800200037001e02be00c7
:100dc8002e009000be0090000001be000400be008e
:100dd80020ff07000001be0000c22b00e1c3240071
:100de80068fe0700adfe07000000780000f0a100d3
:100df8000000e900c00e8800100037001e02be0087
:100e08002e009000be0090000001be000400be004d
:100e180010ff07000001be0000c22b00e1c3240040
:100e280058fe07009dfe07000000780000f0a100b2
:100e38000000e900d00e8800000000004f04780090
:100e48000080fa00000006000000fa00c942a9006c
:100e5800c962a900c982a900c9c2a90072ff070016
:100e68000200200003f02300100020008cff070080
:100e7800d2cc2c00c3d423002000200088ff070018
:100e8800a299290093f523003000200084ff070071
:100e9800c1e1a8000080fa00000006000000fa0086
:100ea80060022000303a88004427ef00320020001a
:100eb80080072000a10920003374200080497800b1
:100ec80081497800824978001200200060042000df
:100ed800710520002374200080497800814978003a
:100ee8008249780000000000113a800000002700c5
:100ef8008080600000002300808f5000faff3a00d5
:100f080000000000113a800000022000008060000c
:100f18000000e000fbff32000080fa00000006003d
:100f28000000fa00ddff0700c7ff0700c881a8001e
:100f3800c801a800c8a1a800c821a800c8c1a80065
:100f4800c841a800c1e1a80000000000000000009e
:100f58000000000000000000000000000000000089
:080f680000000000f8ff370053
:020000040000fa
:0200000401f009
:04000c008000000070
:020000040000fa
:0200000401f009
:0400100045000000a7
:020000040000fa
:0200000401f009
:040014005f00000089
:020000040000fa
:0200000401f009
:04001c00ddff000004
:00000001FF
