:020000040000fa
:080000000002040000000000f2
:020000040000fa
:040008006c03000085
:020000040000fa
:04000c0030030000bd
:020000040000fa
:0400100036030000b3
:020000040000fa
:040014003c030000a9
:020000040000fa
:04001800420300009f
:020000040000fa
:04001c004803000095
:020000040000fa
:040020006c0300006d
:020000040000fa
:040024006c03000069
:020000040000fa
:040028006c03000065
:020000040000fa
:04002c006c03000061
:020000040000fa
:040030006c0300005d
:020000040000fa
:040034006c03000059
:020000040000fa
:040038006c03000055
:020000040000fa
:04003c006c03000051
:020000040000fa
:040040006c0300004d
:020000040000fa
:04004400b203000003
:020000040000fa
:040048006c03000045
:020000040000fa
:04004c006c03000041
:020000040000fa
:04005000fc020000ae
:020000040000fa
:040054007003000035
:020000040000fa
:040058006c03000035
:020000040000fa
:04005c006c03000031
:020000040000fa
:040060006c0300002d
:020000040000fa
:040064006c03000029
:020000040000fa
:040068006c03000025
:020000040000fa
:04006c006c03000021
:020000040000fa
:040070006c0300001d
:020000040000fa
:040074006c03000019
:020000040000fa
:040078006c03000015
:020000040000fa
:04007c006c03000011
:020000040000fa
:040080006c0300000d
:020000040000fa
:040084006c03000009
:020000040000fa
:040088006c03000005
:020000040000fa
:04008c006c03000001
:020000040000fa
:040090006c030000fd
:020000040000fa
:040094006c030000f9
:020000040000fa
:040098006c030000f5
:020000040000fa
:04009c006c030000f1
:020000040000fa
:0400a0006c030000ed
:020000040000fa
:0400a4006c030000e9
:020000040000fa
:0400a8006c030000e5
:020000040000fa
:0400ac006c030000e1
:020000040000fa
:0400b0006c030000dd
:020000040000fa
:0400b4006c030000d9
:020000040000fa
:0400b8006c030000d5
:020000040000fa
:0400bc006c030000d1
:020000040000fa
:0400c0006c030000cd
:020000040000fa
:0400c4006c030000c9
:020000040000fa
:0400c8006c030000c5
:020000040000fa
:0400cc006c030000c1
:020000040000fa
:0400d0006c030000bd
:020000040000fa
:0400d4006c030000b9
:020000040000fa
:0400d8006c030000b5
:020000040000fa
:0400dc006c030000b1
:020000040000fa
:0400e0006c030000ad
:020000040000fa
:0400e4006c030000a9
:020000040000fa
:0400e8006c030000a5
:020000040000fa
:0400ec006c030000a1
:020000040000fa
:0400f0006c0300009d
:020000040000fa
:0400f4006c03000099
:020000040000fa
:0400f8006c03000095
:020000040000fa
:0400fc006c03000091
:020000040000fa
:040100006c0300008c
:020000040000fa
:040104006c03000088
:020000040000fa
:040108006c03000084
:020000040000fa
:04010c006c03000080
:020000040000fa
:040110007e04000069
:020000040000fa
:040114006c03000078
:020000040000fa
:040118006c03000074
:020000040000fa
:04011c006c03000070
:020000040000fa
:040120006c0300006c
:020000040000fa
:040124006c03000068
:020000040000fa
:040128006c03000064
:020000040000fa
:04012c006c03000060
:020000040000fa
:040130006c0300005c
:020000040000fa
:040134006c03000058
:020000040000fa
:040138006c03000054
:020000040000fa
:04013c006c03000050
:020000040000fa
:040140006c0300004c
:020000040000fa
:040144006c03000048
:020000040000fa
:040148006c03000044
:020000040000fa
:04014c006c03000040
:020000040000fa
:040150006c0300003c
:020000040000fa
:040154006c03000038
:020000040000fa
:040158006c03000034
:020000040000fa
:04015c006c03000030
:020000040000fa
:040160006c0300002c
:020000040000fa
:040164006c03000028
:020000040000fa
:040208006c03000083
:020000040000fa
:04020c004e0300009d
:020000040000fa
:040210005403000093
:020000040000fa
:040214005a03000089
:020000040000fa
:04021800600300007f
:020000040000fa
:04021c006603000075
:020000040000fa
:040220006c0300006b
:020000040000fa
:040224006c03000067
:020000040000fa
:040228006c03000063
:020000040000fa
:04022c006c0300005f
:020000040000fa
:040230006c0300005b
:020000040000fa
:040234006c03000057
:020000040000fa
:040238006c03000053
:020000040000fa
:04023c006c0300004f
:020000040000fa
:040240006c0300004b
:020000040000fa
:040244006c03000047
:020000040000fa
:040248006c03000043
:020000040000fa
:04024c006c0300003f
:020000040000fa
:040250006c0300003b
:020000040000fa
:040254006c03000037
:020000040000fa
:040258006c03000033
:020000040000fa
:04025c006c0300002f
:020000040000fa
:040260006c0300002b
:020000040000fa
:040264006c03000027
:020000040000fa
:040268006c03000023
:020000040000fa
:04026c006c0300001f
:020000040000fa
:040270006c0300001b
:020000040000fa
:040274006c03000017
:020000040000fa
:040278006c03000013
:020000040000fa
:04027c006c0300000f
:020000040000fa
:040280006c0300000b
:020000040000fa
:040284006c03000007
:020000040000fa
:040288006c03000003
:020000040000fa
:04028c006c030000ff
:020000040000fa
:040290006c030000fb
:020000040000fa
:040294006c030000f7
:020000040000fa
:040298006c030000f3
:020000040000fa
:04029c006c030000ef
:020000040000fa
:0402a0006c030000eb
:020000040000fa
:0402a4006c030000e7
:020000040000fa
:0402a8006c030000e3
:020000040000fa
:0402ac006c030000df
:020000040000fa
:0402b0006c030000db
:020000040000fa
:0402b4006c030000d7
:020000040000fa
:0402b8006c030000d3
:020000040000fa
:0402bc006c030000cf
:020000040000fa
:0402c0006c030000cb
:020000040000fa
:0402c4006c030000c7
:020000040000fa
:0402c8006c030000c3
:020000040000fa
:0402cc006c030000bf
:020000040000fa
:0402d0006c030000bb
:020000040000fa
:0402d4006c030000b7
:020000040000fa
:0402d8006c030000b3
:020000040000fa
:0402dc006c030000af
:020000040000fa
:0402e0006c030000ab
:020000040000fa
:0402e4006c030000a7
:020000040000fa
:0402e8006c030000a3
:020000040000fa
:0402ec006c0300009f
:020000040000fa
:0402f0006c0300009b
:020000040000fa
:0402f4006c03000097
:020000040000fa
:0402f8006c03000093
:020000040000fa
:0402fc006c0300008f
:020000040000fa
:040300006c0300008a
:020000040000fa
:040304006c03000086
:020000040000fa
:040308006c03000082
:020000040000fa
:04030c006c0300007e
:020000040000fa
:040310006c0300007a
:020000040000fa
:040314006c03000076
:020000040000fa
:040318006c03000072
:020000040000fa
:04031c006c0300006e
:020000040000fa
:040320006c0300006a
:020000040000fa
:040324006c03000066
:020000040000fa
:040328006c03000062
:020000040000fa
:04032c006c0300005e
:020000040000fa
:040330006c0300005a
:020000040000fa
:040334006c03000056
:020000040000fa
:040338006c03000052
:020000040000fa
:04033c006c0300004e
:020000040000fa
:040340006c0300004a
:020000040000fa
:040344006c03000046
:020000040000fa
:040348006c03000042
:020000040000fa
:04034c006c0300003e
:020000040000fa
:040350006c0300003a
:020000040000fa
:040354006c03000036
:020000040000fa
:040358006c03000032
:020000040000fa
:04035c006c0300002e
:020000040000fa
:040360006c0300002a
:020000040000fa
:040364006c03000026
:020000040000fa
:10040000eff72000ae7e24000e01880000000000ff
:10041000000020000000e000020032000001200087
:10042000200288000e000700402423000100200065
:10043000810f700001003200220007000000200040
:100440000000e00002003200000002000000000096
:10045000f03b0200000000000040da000000fe0057
:100460004440a900403320000000e00003003200b7
:1004700000002000a00188004440a8000000060001
:10048000f03fb1000180b10006003500ee03090025
:1004900000000000403fb1000180b100fbff3d00c3
:1004a0001000b000203fb0000200350000800900bd
:1004b00000000000000006008a1f78008b1f7800f3
:1004c0000000060091018800800478000000eb0025
:1004d0001a003700e284440032a0b4009905ba0043
:1004e000e284440032a0b4009906ba00e2844400d9
:1004f00032a0b4000006eb00476fde00fd07b2003b
:10050000636ce10003003a00ebff07000000eb0022
:100510000a003700606ce10004003a00005deb0067
:100520008b05e900fdff3e00040037006168e10033
:10053000010032000086eb000b00070019c7ba006b
:100540001905ba000e04e00003003a000a00e000ba
:10055000e0ff3a0000000600fe07b2009e0188009e
:100560008a047800f5ff3700395dba008b05e90091
:100570000c003200295dba008b05e900080032004a
:100580000c00e00003003a00e284440032a0b40012
:10059000f5ff370019ddba008b05e900faff3a00d4
:1005a0008904e800e184440032a0b40000000600a1
:1005b000e03c040000000000b6340400000000002d
:1005c00026380400000000009437040000000000fa
:1005d000c837040000000000ae0504000000000061
:1005e0000606040000000000501204000000000095
:1005f0000000040000000000801f78000200fa00e4
:10060000c482a80040128000104188000040eb0026
:10061000004f7800010037001e4fe8001e407800b0
:10062000e24f5000fcff3400c522a9000040eb005f
:10063000004f7800010037001e4fe8001e40780090
:10064000e34f5000fcff3400c522a8002028ef0033
:100650008540a9000080fa004f00780000400600a5
:100660000000fa008020a900ffff37000000fa0018
:100670008060a900ffff37000000fa008040a90059
:10068000ffff37000000fa008080a900ffff37005d
:100690000000fa0080a0a900ffff37000000fa0068
:1006a0008020a900ffff37000000fa008060a90049
:1006b000ffff37000000fa008040a900ffff37006d
:1006c0000000fa008080a900ffff37000000fa0058
:1006d00080a0a900ffff37000000fa00ffff3700ed
:1006e0003600f800809fbe00829fbe00849fbe003f
:1006f000869fbe000000fa008560a90030118000ce
:100700000040780080407800c0e82000c61b070049
:100710000004e0000b00320031418000c0e82000fe
:1007200001000100c0e82000e11b07000004e00018
:1007300002003200c0e82000f91b0700c542a900f2
:1007400001003700000000000080fa004f03be00e7
:100750004f02be004f01be004f00be003600f90040
:1007600000400600809fbe00829fbe00849fbe00a6
:10077000869fbe00889fbe000000fa00200f800008
:10078000d0418800d04180006101b800e041800084
:100790008000eb000000510081805900f04188008a
:1007a00001428800f0418000014280006001100099
:1007b000e081180000d0270001002000800f5100c8
:1007c000818f590009003400f2418000034280000b
:1007d000000020001100200002004000838048003b
:1007e000f0418800014288000f003700f24180008c
:1007f0000342800000d0270001002000800f51003c
:10080000818f590008003400f241800003428000cb
:1008100000002000f1ff2f0002004000838048000c
:10082000f041880001428800d0418000e04188000a
:100830001242800023428000f0418000014280008b
:100840000200400083804800104288002142880056
:1008500010428000214280000001be00a0418000c3
:10086000b1418000009ab90004027800028bb900ff
:1008700086027800050242000010b8000102420022
:1008800084007800107b8800217b88003042800043
:10089000414280000003be00f04180000142800020
:1008a0000001be00a0418000b1418000009ab90063
:1008b00004027800028cb900880278000502420028
:1008c0000010b800010242008400780006004000d9
:1008d00087804800304288004142880084e0a900b7
:1008e0000080fa004f04be004f03be004f02be005e
:1008f0004f01be004f00be00004006003600f80069
:10090000809fbe00829fbe00849fbe00869fbe0067
:10091000881f78000000fa0010c8bf000081fb00ab
:10092000200f80008000eb00c211dd00a2842000b7
:10093000028141000089be0010c8bf000082fb0098
:1009400010c8bf000080fb00c200dd00a0842000b2
:10095000008040001001be00104080008000eb00cd
:100960000000510081805900c221dd00a29d2000bd
:10097000028141000089be0010c8bf000080fb005a
:10098000c200dd00a09d2000008040001000be00dd
:1009900060011000e081180000d027000100200055
:1009a000800f5100818f59001100340010c8bf0022
:1009b0000082fb0010c8bf000080fb00c200dd0009
:1009c000a09d2000008040001001be00000020001b
:1009d000110020000200400083804800c221dd0099
:1009e000a29d2000028141000089be001b0037004b
:1009f00010c8bf000080fb00c200dd00a09d2000e9
:100a0000008040001001be0000d02700010020003f
:100a1000800f5100818f59001000340010c8bf00b2
:100a20000082fb0010c8bf000080fb00c200dd0098
:100a3000a09d2000008040001001be0000002000aa
:100a4000f1ff2f000200400083804800c221dd003a
:100a5000a29d2000028141000089be0010c8bf0095
:100a60000080fb00c200dd00a09d2000008040004f
:100a70001000be00e00f5000e08f58000f003d0056
:100a800010c8bf000084fb0010c8bf000080fb003e
:100a9000c200dd00a09d2000008040001000be00cc
:100aa000d60f070001f0a200d70f0700c241dd00fa
:100ab000a29d2000028141000089be000281200029
:100ac000124178000280fb00c200dd00a0842000fb
:100ad000008040001000be00000078001040880038
:100ae0000240e80010e8b70010c8bf00e14f500016
:100af0000100360011e1a80010c8bf00fd4f5000f2
:100b00000400360010c0b30016e8b70011e1a900d8
:100b10009b40a9008b40a9000080fa004f04780098
:100b20004f03be004f02be004f01be004f00be008b
:100b30003600f9000040060080017800020037000e
:100b4000815978000201e9000200e000fcff3a0050
:100b50000000060021d220009600370090017800a6
:100b60000200e00002003a000308e9000500370037
:100b70008080eb001304e000020032000308e8006c
:100b80009300fb0001007800000006000200fa005c
:100b9000f0bf9f00ea8157003fb997008f80e900be
:100ba000e05a2000a90007000080fa0000000600bb
:100bb0008001780002003700b15978000201e90095
:100bc0000200e000fcff3a000000060002003700cf
:100bd0000204e0000b00320081017800000278007e
:100be00030417800b14f5100f9ff32001000200071
:100bf00014427800934f5200030031000080eb0054
:100c0000000006000000eb0000000600889fbe0008
:100c100000047800010078008204780088017800e0
:100c200009017800110020000e000700890f500014
:100c3000010032000004eb00080078004f04be0001
:100c4000000006000000fa00e88157004fb9970045
:100c500021d2200060602000440107000080fa00db
:100c600000000600889fbe008a9fbe008c9fbe00c9
:100c70008e1f7800000678000104780002007800da
:100c8000830478000881b900020778000200e000c0
:100c9000420032000800e000410032008205780086
:100ca000c900900069009000808f50000400390056
:100cb00009007800df0107000000e000290035008e
:100cc00000402000190060000a0032000b0178008b
:100cd000a10020000c0078001d02070080067800ab
:100ce0000d00e00006003200610516000a8546008e
:100cf000040037000b0578008006eb000100370088
:100d00000b05780049009000e900900080805000b9
:100d10008a8f500002003100010578008006eb0048
:100d20000a0178008c007800a1ff07008a85550031
:100d3000490090000a004000c00498000d00e00047
:100d400004003200090078000b0207000000e000f8
:100d500004003a000b00e000020032000a064600e0
:100d6000cfff370000802000190060000200320031
:100d7000090078000002070000c020001900600090
:100d80000200320049009000e00498008b055700f3
:100d9000110009008885d800010037000000eb0031
:100da0004f0778004f06be004f05be004f04be003f
:100db00000000600889fbe008a1f78000004be0065
:100dc000c900900069009000808f50000500390034
:100dd00009007800970107008080eb000000e00028
:100de0001600350008457800490090000858780042
:100df000c00498001900780000b8a30004003a006d
:100e000000a8a30007003200ea4f540005003a0092
:100e100009007800d80107008080eb000000e000a6
:100e200006003a0000c020001900600002003200f5
:100e300049009000e00498008a80fb0001007800df
:100e40004f0578004f04be00000006001200fa00b3
:100e5000889fbe008a9fbe008c1f78000204780025
:100e6000a0b79f00b1b79f0083007800788057003b
:100e7000fc0107000000eb00e0b79f00d8b79f001f
:100e80000004eb005fb697009c85fb008b04fb0021
:100e90008b05ea00cf5dde0009007800bb02070089
:100ea0000000e0001b0032006fb097000000e80077
:100eb000e0b79f00120020008000eb003fb09700d9
:100ec000afb1970003000100000578000a00780028
:100ed000ae0207000000e000f3ff3a006fb0970099
:100ee000e10f4500080032000000e900e0b79f0074
:100ef0000001eb008a0078003fb09700afb1970087
:100f000003000100220037000000e900e0b79f0065
:100f10001f00370050022000808f540002003a006a
:100f20000b05e900180037000b05780016003700a4
:100f30006fb097000000e800e0b79f0012002000ab
:100f40008000eb003fb09700afb1970003000100b5
:100f5000bc00fb00810f50000b003200e10f40008d
:100f60007c003200efb097008100e900e1b79f00fc
:100f70000001eb00800078003fb09700afb1970010
:100f800003000100730037000a05e900e8ff3b0099
:100f90005fb097008b054000dbb79f005002200038
:100fa000808f5400030032000900e000b5ff3a00d2
:100fb000680037009b4078000040eb00a2c2b300fd
:100fc00082cf500003003a008b05e800dbb79f009a
:100fd00001407800a0f79f000000eb0080bf9f0059
:100fe0000b0037000fb89700f2ff2700820f500068
:100ff000050032006a01b90000fd2f000200400028
:101000000100400080bf9f000a05e800dab79f009a
:101010005fb597009a4478008900fb0000fd2f001f
:1010200001004000e90f5000eeff3600c0f4200040
:101030008e0107000000e000030032000a05e8000e
:10104000dab79f00010037008044eb00b9f79f003a
:101050005fb0970081c6b30081cf540004003a000e
:1010600090cf14000b003a00e6c050000600370095
:10107000c1c6b30081cf540006003a0090cf1400df
:1010800004003a00e5c04000b1f79f000000e8000e
:10109000d0b79f005fb097009000fb0030f52000b4
:1010a000720107000000e0001a003a006fb09700dc
:1010b0000000e800e0b79f00120020008000eb0075
:1010c0003fb09700afb197000300010080047800a3
:1010d000090078002d0207000000e000f3ff3a004d
:1010e0006fb09700e18f4400080032000000e90073
:1010f000e0b79f000001eb00890078003fb0970047
:10110000afb1970003000100020037000000e900c2
:10111000e0b79f007c805700240207000000e00039
:1011200003003c000800e0000a003a000800370015
:101130004ff097000004e000010032000804e800ce
:101140005fb097000000e800d0b79f004dff370068
:1011500000047800080078004f0678004f05be00b4
:101160004f04be000080fa00000006006200fa0092
:10117000889fbe008a1f78000005780081047800ef
:10118000020478008300780080f92f000f004000ef
:10119000340107009a979f00a9979f000000eb0079
:1011a000b09f9f001885fb008a04fb000a05ea0037
:1011b0004f55de0050022000808f54000d00320099
:1011c000e10f55000b003a000a0178008800780012
:1011d0002f9097009f91970003000100a0979f0018
:1011e0000000e0008e0032003f9897000000e80009
:1011f000b09f9f000a04440050022000808f5400da
:10120000040032000900e000e6ff3a003f98970032
:10121000840037000000eb00909f9f00809f9f009c
:10122000f0979f00e0979f00d0979f00c0979f0086
:1012300007003700a1f2200001005000000040002c
:10124000e1f1200061007800df9897000100700054
:10125000d09f9f0088047800090478003845780002
:101260008a00fb00a0f22000000107000000e0005f
:10127000f0ff3a00a1c2b300814f55000e003a00c2
:10128000cf8897000180e900c08f9f001000780090
:10129000c09f9f000000e00005003d000000ea0044
:1012a000c09f9f005f9897000020a000d09f9f00e4
:1012b0000904e8000f003700c09f9f000000eb000a
:1012c00005003700f2ff2700820f500002003200b5
:1012d0006a01b9000280400009047800880478009f
:1012e000b900fb000103b100e98f5000f5ff3600a3
:1012f000c09f9f00e0c2b300984f10000200320070
:101300000080eb0019003700a0c2b300d84f1000d6
:1013100007003a00cf8897000180e900c08f9f0046
:1013200010007800a09f9f000804e800100037001c
:101330000000eb00a09f9f008800780005003700a8
:10134000f3ff2700830f5000020032006a02b90049
:101350000400410001047800880078003101fb009e
:101360000203b100e90f5100f5ff3600a09f9f0076
:10137000984478008900fb0060f12000bb00070062
:101380000000e000020032000804e800010037001d
:101390008044eb00c97f9f0080c6b30080cf54001b
:1013a00004003a0098cf14000a003a00664050004a
:1013b00006003700c0c6b30080cf540005003a00d5
:1013c00098cf140003003a0065404000c07f9f00a2
:1013d0000804e8001801fb00e3fb2f008f814100a7
:1013e00081f92f008f804000a0f92f000f004000ee
:1013f000140207000000e00009003a00e1fb2f00a2
:101400008f804000a0f92f000f004000a3000700cc
:101410000000e000020035000804e80061ff37002a
:101420000080eb004f0578004f04be000080fa00fa
:1014300000000600889fbe008a1f78000004780024
:10144000c8009000680190000000eb00828f5000ff
:101450003c003900180078002200290002016000d9
:10146000e20f510007003200012024000000e000dc
:1014700001003d0001202000008c70000080eb0086
:10148000300037000200260002006000820f50008a
:1014900009003a0038009000808f500006003900a3
:1014a0000800780034000700800078000080eb001e
:1014b0000100e00023003a001805780000c0200079
:1014c0000000650018003a00a804900060022000a7
:1014d00008004000808f540013003a0000202000d4
:1014e00078030700200498000000e00005003a009f
:1014f00029049800490498008904e80039049800f8
:10150000080037000a60a0000a0c78004004980028
:10151000012020008080400031049800400c980099
:10152000500c980093030700280090005004980086
:10153000380090006004980000002600180c70002d
:101540000000eb004f0578004f04be0000000600cd
:1015500003003700b0cf1000050032000201e9009f
:10156000800178000200e000faff3a000000050068
:101570000300780000000600889fbe008a1f7800e4
:10158000000478000800e0000d003a0008d72000b1
:10159000700544008004eb00580078000000e00073
:1015a00004003200f4ff07000000e00001003d00ed
:1015b0008084eb008a0f5400f7ff3a0025003700c3
:1015c00000002200180060008004eb0021003200bf
:1015d000a80490000f003700090151003840900026
:1015e0000000fb0089007800980b07000000e00075
:1015f00007003c0028009000400498006004980018
:10160000500c98001890a0008084eb001100370067
:101610008084440048019000828f5400eeff39001e
:1016200028009000400498009800780002c0200034
:101630000281600001003a003800900001e8a30038
:10164000020032006004980001003700500c98003e
:101650008004eb00090078004f0578004f04be00bd
:1016600000000600010878000000060002003700b4
:101670000304e00006003200000178000200780058
:10168000b041780081cf5100f9ff3a0001003700e6
:101690000001eb0002007800000006000400fa00e0
:1016a000889fbe008a9fbe008c1f780000047800cf
:1016b00001067800f80d90007800900080855500b4
:1016c0000808900080855500180890008085550016
:1016d00028089000808555003808900080855500c6
:1016e00048089000808555000002220090bf9f00ae
:1016f00000032300a0bf9f00081090000028a30053
:1017000015003a000b00e000130034000b057800d0
:101710008a047800e20f55000100360029002000fd
:10172000c801900009017800ee8057005800900031
:1017300003000100500498000000e0008c0032001b
:101740006808900009004000600c980009055500e9
:101750004240a900eeff3c00780190000200e0004a
:101760000c003400c80190008c00780058009000f4
:1017700003000100500498008080eb000000e000ae
:101780007c003200e8089000780090000080400063
:10179000600c9800880c90000900e00011003400f3
:1017a00009057800e28f5400010036002a0020006d
:1017b000c80190000a017800ec80570058009000a2
:1017c00003000100500498000000e00068003200af
:1017d000680890000a004000600c98008a84540059
:1017e000edff3700180990000200e0000c00340003
:1017f000c8019000e800900058009000030001002c
:10180000500498008080eb000000e0005900320096
:10181000e80890001808900000804000600c9800d4
:10182000a80c90000900e0001100340009057800c0
:10183000e28f5400010036002a002000c801900009
:101840000a017800ec805700580090000300010066
:10185000500498000000e000450032006808900045
:101860000a004000600c98008a845400edff3700a5
:10187000380990000200e0000e003400e8009000fb
:101880001808900080804000c80190005800900027
:1018900003000100500498008080eb000000e0008d
:1018a00034003200e80890003808900000804000c2
:1018b000600c9800c80c90000900e0001100340092
:1018c00009057800e28f5400010036002a0020004c
:1018d000c80190000a017800ec8057005800900081
:1018e00003000100500498000000e00020003200d6
:1018f000680890000a004000600c98008a84540038
:10190000edff3700081090008000eb000028a300d6
:10191000180032000b00e000160034008b04780041
:1019200009057800e28f5400010036002a002000eb
:10193000c80190000a017800ee805700580090001e
:1019400003000100500498000000e000080032008d
:10195000680890000a004000600c98008a845400d7
:101960004240a900eeff3c008000eb000100370080
:101970008080eb00010078004f0678004f05be0024
:101980004f04be000080fa00000006006900e1007c
:10199000040035006d00e100030034000002b100d6
:1019a000010032000000050010000500881f7800cb
:1019b000000478000040eb000054980038009000cc
:1019c0001040780091c6b300814f50002a003200c9
:1019d00013003c00f1c05000814f5000260032003f
:1019e00005003c0051c2b300814f50007500320029
:1019f00031c5b3001b00370031c6b300814f500022
:101a00001b0032008140e800814f50001a00320074
:101a1000e9c05000814f500087003a008400370031
:101a200001c7b300814f500007003c008140e9002e
:101a3000814f500010003d008140e900814f50006f
:101a40007d003a000f00370051c7b300814f5000ae
:101a500009003200e3c04000814f50000600320010
:101a6000e5c05000814f500073003a00510037002c
:101a70008000eb0050003700080078009902070052
:101a80006e003700e8489000100020000104e000dc
:101a90006a003a00f8489000c3c6b30028019000dd
:101aa00083cf5000340032000a003c00e4c15100f2
:101ab00083cf50002a003200a0c6b30080cf500070
:101ac0001a0032006840500080cf500031003a00c8
:101ad0000a00370043c7b30083cf50002000320014
:101ae000a0c7b30080cf50001900320069405000f9
:101af00080cf500027003a000700370028009000f0
:101b00000080e9002004980010007800084c900044
:101b10000848780025003700280090000080e90080
:101b20002004980010007800030037000281e900cb
:101b3000220498001200780048029000cfa2de0034
:101b4000612bb9000498be000690be001700370054
:101b50000281e90022049800120078001100370089
:101b60000281e90022049800920078004804900065
:101b700088087800310037000281e90022049800cb
:101b80009200780048019000cf91de008288be006c
:101b90002a003700280090000080e9002004980007
:101ba0001000780048049000080878001000200019
:101bb000220037001100200008007800c40307004d
:101bc0001e003700480090000000e8004004980024
:101bd00098017800120020008000eb0018009000af
:101be0000300010080007800100020005202200055
:101bf000828f50001100320048009000e18f4000b9
:101c0000070032000000e9004004980098017800c5
:101c10000001eb00180090000300010006003700ef
:101c20000000e9004004980001007800030037003c
:101c30008080eb00e0ff37000000eb004f047800ed
:101c400000000600889fbe008a1f7800000478000c
:101c5000824478000305780070c6b30080cf54003a
:101c600021003c0000c0e90080cf5400d5003d00b9
:101c70007240500080cf54003c0132000d003c0007
:101c80006c40500080cf54004f013c0000c0e90080
:101c900080cf5400cb003d0050c2b30080cf540031
:101ca000460132007c40400080cf540046013a009b
:101cb000c400370010c6b30080cf5400c10032000a
:101cc00004003c006940500080cf54003e013a00bf
:101cd0006900370030c6b30080cf540018003200ce
:101ce0000040e8000900370000c7b30080cf54006f
:101cf0001001320008003c0000c0e90080cf540011
:101d0000d90032005c003c006540500080cf540098
:101d10002d013a000f00370050c7b30080cf5400a8
:101d2000550032006340400080cf54005200320022
:101d30006540500080cf540023013a000b0137006a
:101d40001181e9008208780078009000127578000f
:101d50002301370028609000c2c6b300824f5000b4
:101d600007003a00110178006400510080087800f3
:101d70001000be004f89de00820178001400370099
:101d800012c7b300824f500003003a0011027800de
:101d90006800520005003700a2c6b300824f500011
:101da00006003a00910278006880520080087800ae
:101db0005001be004000be00050037001180e90060
:101dc0008008780010007800cf80de006109b9003b
:101dd000009cbe000294be002862900085c6b3003d
:101de000854f52000d00320025c6b300854f5200ca
:101df00004003a000000fb00cf80de006109b9005a
:101e00000800370045c7b300854f52000300320079
:101e1000e6c24200854f520004003a00cf80de0047
:101e20006109b900009cbe000294be003802be00e9
:101e30002803be0078009000d1c2b300e00f52002a
:101e4000e08f5a00e00f5b00e08f5b000800350078
:101e5000881090000118a30002003200b1c2b30044
:101e6000030037000108a3005100320001c2b30093
:101e7000017578004c00370028609000c2c6b3009e
:101e8000824f500008003a001103780064005300ac
:101e9000800878001002be006033b8000400be0065
:101ea0000601be001400370012c7b300824f500075
:101eb00003003a0091027800688052000500370064
:101ec000a2c6b300824f500006003a00110378000a
:101ed00068005300800878005001be004000be003a
:101ee000050037001180e9008008780010007800b4
:101ef0008000eb006011b800009cbe000294be00a0
:101f00002862900085c6b300854f52000d00320054
:101f100025c6b300854f520004003a000080fb0044
:101f20008000eb006011b8000800370045c7b3001f
:101f3000854f520003003200e6c24200854f520036
:101f400004003a008000eb006011b800009cbe0065
:101f50000294be00081090000038a3001400320064
:101f60003800be002801be00e00f5000e08f58008e
:101f7000e00f5900e08f59000d00320080c7b30018
:101f800080cf54000300320080c5b30080cf5400de
:101f900007003a007800900001c3b3000175780093
:101fa0000000e800097578000000e800700498005f
:101fb00078009000000545006a0498008940780088
:101fc0006700370028619000c0c4b300804f510003
:101fd00006003a009103780068805300800878007a
:101fe0005001be004000be0005003700110178001e
:101ff00064005100800878001000be00500b0700fc
:10200000009cbe000294be00b800900078009000d2
:102010000100e00002003d00d1c2b300080037001b
:10202000881090000118a30002003200b1c2b30072
:10203000030037000108a3000400320001c2b3000e
:10204000017578000000e8007004980078009000a6
:10205000000545006a0498008900fb00080078002c
:10206000bd0407006000370028619000c3c6b300bc
:102070001180e900834f5100220032000a003c0029
:10208000e4c15100834f51002500320083c1e800b4
:10209000834f510013003200e8c15100834f5100bb
:1020a0001e003a000a00370043c7b300834f5100b7
:1020b0001b003200e6c14100834f5100180032007e
:1020c000e9c15100834f510014003a000500370068
:1020d0008008780010007800485c9000084878007c
:1020e000410037008008780010007800680a9000ee
:1020f000cfa2de00612bb9000498be000690be009e
:1021000039003700800878001000780068099000d6
:10211000cf91de000288be00330037001180e90055
:102120008008780010007800680c9000080878009b
:102130002d0037001180e900800878001000780039
:10214000cf80de006109b900009cbe000294be0091
:1021500078009000000545006a04980081c7b3002c
:10216000080078004d0307001f0037001180e900c8
:1021700080087800100578006a049800d80c900058
:102180000900e00004003d000a007800cf000700cd
:102190008004780007003700090178008000eb0018
:1021a0000a007800eafc07000000e00001003200ad
:1021b0008a045000190c98000b003700780090003a
:1021c000097578000600370078009000000545008a
:1021d0000904e00001003a0059c2b300094d78003b
:1021e0000000e800700498000000eb004f05780044
:1021f0004f04be0000000600889fbe000004780067
:10220000617b80000100e0000200320001007800e4
:102210000d003700717b8000e0f6200004003700dd
:10222000910f5400250036000180e80091009000d5
:102230000100e000faff3a0010003700920f54004e
:102240001e0036000280e800100178000200e00065
:10225000faff3a0011017800717b8000e0f620005f
:1022600004003700910f5400140036000180e8008c
:1022700091009000828f5000faff3a00b97b8000f5
:10228000888f54000100310088047800090078002c
:10229000590507000000e00004003a00888f540050
:1022a000050032008904d100f5ff370009187800d5
:1022b0005b050700d2ff37000000eb004f04be00b3
:1022c00000000600881f7800630440000800a10099
:1022d0008000eb00800f540021003600e30f540013
:1022e00001003e004800200008007800c2ff0700ff
:1022f0008000eb000000e000190032009000780040
:102300009101780064815100880f51000300310071
:102310001101900002087800070037000881400092
:1023200002087800910190001301980010017800d4
:102330001109140088087800100178000000eb00f3
:102340000200e00004003200920190000300e0006f
:10235000010032000280e800607b88008180e80094
:10236000010078004f0478000000060000252100dd
:102370005d053700881f780088f720001804e0000a
:1023800003003a00f9ff070020c0b300004c7800ba
:102390004f04780000000600889fbe00000478000b
:1023a0000800780074fc0700800478000004200016
:1023b0001800600002003200280090001805070095
:1023c0000000eb0020049800384090000004e0007a
:1023d000050035000000fb00600807000000e00079
:1023e000010032008084eb00181090000000e00033
:1023f00008003200640807000000e000010032001d
:102400008084eb0018109000050507000000eb0029
:102410001014980000082000180060000f0032001f
:1024200001d720000000eb00d10f140005003a0096
:102430000000400021d72000008040000008eb0091
:10244000030037000000e800e80f5000f6ff3a00f4
:1024500008007800f20407000e003700000c780036
:1024600000c0eb00304498006002200008004000eb
:10247000200498004004980050049800400c9800f4
:1024800060049800500c9800700498007600440096
:10249000000c9800090078004f04be000000060000
:1024a000889fbe0028d82000f0045400480078001f
:1024b0000000e00001003200b7ff0700890f540060
:1024c000faff3a004f04be000000060080007800ca
:1024d000010178003104e000fdff3a0000005100e6
:1024e000000006002f02b000889fbe008a9fbe0039
:1024f0008c1f78008e1f7800000478006800900020
:102500000000e00001003c00f0ff27000000e900af
:1025100050049800480090000000e8004004980033
:1025200098017800120020008000eb001800900055
:102530000300010000057800b0022000800f550064
:10254000030032000080e800800f550015003a00bb
:10255000cad79f00d80090008100e900510498007c
:1025600048009000090033000000e8004004980093
:1025700098017800120020008000eb001800900005
:102580000300010000057800030037000000e800a8
:10259000400498000085eb005efd2f000f07470008
:1025a000020037004efd2f000f0747003800900053
:1025b0009000fb0050ed20002cfc070051ed2000a6
:1025c00001005000e1ec2000e14578008b05fb00a4
:1025d00000032000800f550033003a00d80090001f
:1025e0008100e90051049800480090000c0033007d
:1025f0000000e800400498009801780012002000d4
:102600008000eb0018009000030001000005780036
:1026100080072000800f55000800320004003700ba
:102620000000e800400498000085eb001b00370024
:1026300080052000800f550018003a000b00e000d4
:1026400002003200f08f550002013a00d8009000dd
:102650008100e9005104980048009000090033000f
:102660000000e80040049800980178001200200063
:102670008000eb00180090000300010000057800c6
:10268000030037000000e800400498000085eb00dc
:102690000b0120000046eb000d0037000b00e000ae
:1026a000e9003200eb0037000046eb00a9002000f3
:1026b0000b00e0001a003200ea8f550002003200e1
:1026c000e88f550002003a008b04780014003700b0
:1026d0006901200012003700d80090008100e90055
:1026e0005104980048009000090033000000e80001
:1026f0004004980098017800120020008000eb0050
:102700001800900003000100000578000300370066
:102710000000e800400498000085eb001cc0b300f6
:1027200000032000800f5500ebff32000c04e00096
:1027300018003200005f7800160037006d805700e7
:10274000800f5700010031000a5f7800d800900028
:102750008100e9005104980048009000090033000e
:102760000000e80040049800980178001200200062
:102770008000eb00180090000300010000057800c5
:10278000030037000000e800400498000085eb00db
:102790001cc0b300e10f45000f00320009017800b2
:1027a0008a007800d0ed200069fb07000000e000ff
:1027b000e2ff3a00480090000000e9004004980061
:1027c000980178000001eb008a0078001800900062
:1027d0000300010003003700480090000000e900fa
:1027e000400498000c04e00008003a008004eb006c
:1027f00040fd2f000f004000800f57008b003a0073
:10280000e10f450089003a0087003700004feb00d8
:1028100068489000190020000004e00083003a009e
:10282000380090001040780041c6b300814f50003e
:1028300003003200e5c04000814f500035003a00ef
:102840000b0178008000eb0040fd2f000f004000de
:102850007004070014c0b30004549800784a900034
:10286000c6c6b300a8029000864f52002400320072
:102870000a003c0064435300864f52001c003200a3
:1028800006c3e800864f520012003200684353002e
:10289000864f52005e003a000a00370046c7b30078
:1028a000864f52001200320066434300864f5200aa
:1028b0000f00320069435300864f520054003a0023
:1028c000040037008582e90025049800150278008d
:1028d000380037008582e900250498001502780049
:1028e000009abe000292be00190020004f0037007f
:1028f0008582e90025049800150278004800370019
:102900008582e9002504980015027800008abe003f
:10291000f5ff37000b0178008000eb0040fd2f0031
:102920000f004000970407000954980038039000f6
:10293000a802900004c7b300964f12002a0032008c
:10294000784a9000c6c6b300864f52002b00320072
:102950000a003c0064435300864f520022003200bc
:1029600006c3e800864f52001900320025c6b300a6
:10297000854f520026003a000a00370046c7b300d0
:10298000864f52001800320066434300864f5200c3
:102990001500320015c7b300854f52001c003a00e5
:1029a00006003700280290000482e9002404980001
:1029b00014027800004a7800cbff3700280290000c
:1029c0000482e9002404980014027800c4ff370050
:1029d0008582e9002504980015027800009abe005f
:1029e0000292be00110037008582e900250498009c
:1029f00015027800000a78000c0037008582e90093
:102a00002504980015027800008abe0007003700f0
:102a1000280290000482e90024049800140278003f
:102a2000000a7800b0ff37008a04780009007800b7
:102a30004f0778004f0678004f05be004f04be00d8
:102a40002f02b100000006008b0020001cc0b30064
:102a50001dff37001cc0b30017ff370011003700ff
:102a60008001780010427800d5c2b300d3cf1200a5
:102a700008003a00814f520003003e00a041900040
:102a800083cf500010003600e30140006301510085
:102a900003003700814f52000b0032000201e900b1
:102aa00003007800e20f5100edff3e000300370005
:102ab000b0cf1000050032000201e9000200e00082
:102ac000fbff3a00000005001000050010000500a3
:102ad000f0874700889fbe008a9fbe008c9fbe0083
:102ae0008e1f78000004be00f84d90000046eb00f9
:102af0000900e00025003d00380090000000e800db
:102b00003004980090407800ccef9f00e2c5b300fd
:102b100082cf500003003a000000e8003004980023
:102b2000c1ef9f00b8069000d0c5b3009d4f1000c4
:102b300002003a000d00e800010037000d007800a7
:102b4000d1052000c9fa0700c0b79f000000eb00c4
:102b5000cfb097000100e000c60032000d855000a4
:102b60000046eb00e20f5500080034000a81e9003e
:102b70000d00e800d102200075fa07001cc0b30068
:102b80000000e00001003a000046eb006800900001
:102b90000000e00004003c00100020000900e000fc
:102ba00001003200f0ff2700cbc6b2008b85fb008e
:102bb0008b05e900cf5dde00500498006848900066
:102bc0000004e0000c003a00280090000b00e00038
:102bd000050032000080e900200498001000780011
:102be000b0b79f00040037000080e900200498007f
:102bf00010007800d0b79f000047eb00fbb79f00a4
:102c00008c457800650037000900e00003003400bf
:102c10000d0078005dfb07001f0037000900e00091
:102c20001f0032000b04e0000d003a004fe997004e
:102c30000204e00005003a000a0178008d007800e7
:102c40003800900042fa07000c0037000a017800b3
:102c50008d007800380090003dfa07000e00370024
:102c60004fe897000004e00007003a000a017800ee
:102c70008d0078003800900078ff07000000e00029
:102c800007003a005a0037000a0178008d007800ea
:102c90003800900071ff07000000e00054003a0087
:102ca000ffb097000100e00009003a00684890007a
:102cb0000004e00038003a005fb197000d59780039
:102cc000d2b79f0010c0b300005498003200370004
:102cd000cde79f008d06fb000d0678000cf0a700e5
:102ce0000c06ea000c06ea004f66de0005003a001a
:102cf0000d00e00003003a007c805700f3fd070060
:102d00000006e8007b8257001e0020008902780040
:102d10008b44780084057800100037000e07e90026
:102d2000cb00fb0048009000e18f4000090032001a
:102d30000000e90040049800980178000001eb00d1
:102d40001800900085bf9f00030001008fba970014
:102d5000020037000000e900400498008e0f560082
:102d6000eeff3500894578008504780068489000ba
:102d70000004e00005003a003fb097000d1878000d
:102d8000b0b79f0010c0b3000054980068009000d6
:102d90000000e900600498002ec0b300d800900045
:102da0008100e90051049800480090000c003300b5
:102db0000000e8004004980098017800120020000c
:102dc0008000eb00180090000300010080067800ee
:102dd000e18f46008cff3a00ffb597002b003700cb
:102de000ffb597000000e800400498002700370076
:102df000ffb59700480090000000e90040049800eb
:102e0000980178000001eb008d0078001800900018
:102e1000030001000900e00002003200e24f570009
:102e2000050032000e07fb000080eb0011003200ad
:102e3000100020000f003700684890000004e000f8
:102e400007003a000b00e00003003200bfb097001b
:102e50008008eb00020037005fb197000b49780053
:102e6000100020000900e00002003d00cfb09700f4
:102e7000310498004f0778004f06be004f05be0092
:102e80004f04be000f01b100000006004800900092
:102e90000000e90040049800deff3700fc8747008f
:102ea000889fbe008a9fbe008c9fbe008e1f780048
:102eb0000006780080c5b30080cf50000a003200c1
:102ec0007740400080cf50000a0032006940400047
:102ed00080cf50000b00320050f0200080bf9f00d8
:102ee000ae0020000a00370042ef200082bf9f00a2
:102ef0000600370053f0200083bf9f008e002000a3
:102f00000300370054f0200084bf9f000e01200012
:102f10003c02be002c03be000605be000404be0039
:102f200040c6b30080cf500003003200654040002f
:102f300080cf50000b003a00e00f5200e08f5a00a3
:102f4000e00f5b00e08f5b0006003d006000b80012
:102f50006011b8000404500085845800060559002b
:102f600087855900e80f5700040032004000200018
:102f7000f00f570038003a00010037003000200001
:102f8000e00f5400e08f5c00e00f5d00e08f5d001b
:102f900004003a00dc0890008d0120000100e000f0
:102fa000060032008e00e900888060008fba97002a
:102fb000e5c07800f1ef9f007d01200080007800df
:102fc0008100e900050033008b05d1000a85d3009c
:102fd0008984d3000884d300f9ff3700089ebe001f
:102fe0000a96be00120037008d06e9008e00e90047
:102ff000848060000fb99700e2c1780082fd2f0045
:103000000f01410003f17e00800078008100e9009b
:10301000050033008783d1000683d3008582d30067
:103020000482d300f9ff3700049ebe000696be005e
:103030003c02be002c03be00e00f5200e08f5a009d
:10304000e00f5b00e08f5b008b0034000d00e000c0
:10305000e5ff3c00880037002c60900081c6b3007b
:10306000814f50000b00320006003c000004e000dd
:1030700008003200e6c05000814f50004e003a0078
:1030800004003700c1c6b300814f50004a003a0027
:10309000210037000800e00004003a005c089000be
:1030a0008d0120000000e000060032001100090040
:1030b0000e84d8000fb99700e2c07800f1ef9f00ae
:1030c0007d012000110009000e84d8000a0037009d
:1030d000110009000e04d8008d06e9000e81b90028
:1030e000020454008fb8970061417c0081fd2f00dd
:1030f0008f80400082f07e00000478000800e0002d
:10310000020032000d00e000f1ff3c00cfc4de0001
:10311000614db90025003700e00f5400e08f5c00de
:1031200004003a005c0890008d0120000000e000df
:10313000070032006171b9000800be00c307070034
:103140008fb99700e3417800f3ef9f007d012000e5
:103150006171b9000800be00bf0707000b0037000f
:103160006171b9000800be00190707008d06e9006b
:1031700000f1b900020454000fba9700e4427c0049
:1031800084fd2f000f02420005f27e000004be0005
:10319000e00f5000e08f5800020032000d00e00008
:1031a000efff3c004fcdde008a057800089ebe0090
:1031b0000a96be0030003700e00f5400e08f5c003c
:1031c000e00f5d00e08f5d0004003a005c089000b5
:1031d0008d0120000000e000090032006172b9009a
:1031e000612bb9000800be000a01be0019080700e3
:1031f0000fba970064427800f4ef9f007d01200031
:103200006172b900612bb9000800be000a01be005e
:10321000090807000d0037006172b900612bb90081
:103220000800be000a01be000e0807008d06e90076
:1032300000f2b900040454008fba970065427c0084
:1032400085fd2f008f82420084f27e00009ebe002a
:103250000296be003c04be002c05be00e00f5400e8
:10326000e08f5c00e00f5d00e08f5d000200340045
:103270000d00e000e8ff3c00e80f570010003a00a6
:103280000c1090000038a3000d003200f78f56009c
:1032900006003e0085fd2f008f824200e5c07e00c3
:1032a00000c3b30080cf5000050032008d06e90056
:1032b00002c3b30081fd2f008f80400082f07e00aa
:1032c00078811600120e98006c00900083fd2f008c
:1032d0008f8141008d80410035f607001c08900069
:1032e000dc089000810f500006003d000080500077
:1032f000000e98000c1090000040a10000169800ed
:103300000f0037000100e0000d003d008c10900020
:10331000f4806000f08f500009003a007c099000b2
:10332000fc009000810051000c0990008280500048
:10333000008050004240a90001003400000e9800b7
:103340004f0778004f06be004f05be004f04be0079
:10335000cf01b100000006002f04b000889fbe001e
:103360008a9fbe008c9fbe008e1f780000077800e9
:1033700081f79f003e04be002e05be005e0890004f
:103380000000e00002003d0060002000500f9800a7
:103390008e00780020fb2f000f0040005e01070028
:1033a000e20f50000a003a0030002000100f980091
:1033b000b1c9b3000ff0970081404000e0de20006b
:1033c000e1cf50000d003e00a0de20000b003700d2
:1033d0000000e0000f00340030002000100f9800c3
:1033e000b1c9b3000ff197008140410060df2000b8
:1033f000e1cf500001003e0020df2000ee009000f1
:10340000b0487800b068780010407800904098008c
:10341000f30037000000e00005003a0022fb2f0017
:103420000f014100001978008001eb00e700370030
:103430006022b8006033b8000800be000a01be0078
:103440005e0607000000e00001003d000bf0a20056
:10345000705927009f9897000088b900026a2800d9
:10346000130020005a060700640650009c9f9f002e
:1034700013003b0063061600c0ff2f000006660025
:103480008c01ea00939f9f00addf20000800be0082
:103490000a01be00070037000c08a3000300320039
:1034a0003d02be002d03be00690907000c86d10055
:1034b000e88646000c00e000f7ff3c0018003700eb
:1034c0000c00e00018003200c0ff2f00000666006c
:1034d0009c9f9f00addf20006000b800020020002c
:1034e00003ff2300070037000c08a300030032008d
:1034f0003d02be002d03be00550907000c86d10019
:10350000e88646000c00e000f7ff3c000002be0029
:103510000203be000800be000a01be003b06070011
:103520000004be000205be00de08900060c6b300c5
:103530000ff29700804f520004003200600020001c
:1035400062c4b300824f520002003a009f9a970073
:103550006a80420081004000f1b79f0001037800bb
:10356000f30f53000200340037012000f7b79f002b
:1035700000c3b300c0779f0056fb2f000f0343002a
:103580000e007800a0b79f00060778003d003700c6
:103590000800be000a01be00760607000006be0055
:1035a0007fb1970068015100f2b79f004240a90027
:1035b0000c0034009b0607000002be000203be00a0
:1035c0000800be000a01be00990607006022b8008c
:1035d00046782d00771924001d0907000004be005d
:1035e0000205be00e80047008e0020000802be0071
:1035f0000a03be00b4b79f00c5b79f00d6b79f00af
:10360000e7b79f000c01be00010478000c003700f2
:10361000a400200005002000c0fd2f000f00400086
:10362000e70007006fa89700ffa897000fb1970069
:103630009fb1970005c3b300056441000001be00bf
:10364000e00f5100e08f5900030034000e07e9003d
:10365000e10f4700eeff3a00880078003fb4970082
:10366000cfb497005fb59700efb597000200370021
:1036700000c3b300806078000e07e900fcff3b0048
:10368000688740007fb397000600e0000700340021
:103690006022b8006033b8000800be000a01be0016
:1036a000650607000000e000b9ff3c000e0378004b
:1036b0002fb7970051fb2f008f804000010353006c
:1036c0009f9b970067804300909f9f0002003700f8
:1036d0000603e9000000e90001017800820078009b
:1036e00003c3b300b1cf1100f9ff3200909f9f00d8
:1036f000de09900061c6b3000ff29700814f5200bf
:103700000300320061c4b300814f520002003a004e
:103710000000e8000a0037001000200051c6b30086
:103720008ff2970081cf52000500320005407800eb
:1037300050c4b2000080fb000000e9004f00de0032
:1037400083014000868f510001003400860178001b
:103750000300e0001d00350000c3b300868f510058
:1037600006003d0062c279006940400041c3b300d9
:10377000814f520001003c00694050008300e90085
:103780008100410001003700840178000302e90054
:1037900001037800a142780080cf5200faff320086
:1037a00091c3b300814f500001003a00054be8007f
:1037b0000400e00005003d000201e9008301e8008b
:1037c0001f9b97000603e800969f9f008ff39700ca
:1037d0008700fb001f9a97000e007800b1010700d8
:1037e0004f0778004f06be004f05be004f04be00d5
:1037f0002f04b10000000600800078000000eb00fc
:103800000100e000050034000100780067030700b4
:10381000e10f400001003a000000eb00000006004c
:103820000000e0002f003200c0017800e38f51005b
:103830002c0036000308a3002a003a00717b8000a8
:103840000100e00002003200810f5000040031004e
:1038500011009800707b8800160037008200780005
:10386000110190000200e00002003200800f5100c0
:10387000faff39001102780084824000850f500061
:1038800018003900808f520003003a00830842007c
:1038900001007800070037000200e000030032005a
:1038a00083014000830f51000e0039001200980080
:1038b00090009800900090000100e00009003200a4
:1038c00010014000828f500006003a00c2f620002e
:1038d0000009eb00100178001108410091009000f0
:1038e0001100980000000600010020000100e00027
:1038f00008003200010080000100e00005003200f5
:103900008100e90001008800818040000200800001
:1039100000b1780000000600889fbe000004780017
:10392000e68440001900d0004500de00f27f200050
:10393000820f500010003a00000ceb009904780050
:103940006f816400200020001b003a0021019000dc
:103950000200e00018003a00110190000200e000af
:1039600015003a00100020001100e00012003200a3
:1039700020002000100037000000e00004003a00a2
:10398000010078004b0207000000e00008003c0046
:10399000f20028001901610001fe2300810c710072
:1039a00021c02f00010c40000080eb000200370016
:1039b000000ceb000000eb004f04be00000006000e
:1039c000881f78008a9fbe008c9fbe00000478008c
:1039d0000205be000406be000401be000a00be00cf
:1039e000fb040700008cbe000c01be009e06070011
:1039f0000005550081855d002a0498003b0498006d
:103a0000080078004f06be004f05be004f04780046
:103a100000000600e4874700889fbe008a9fbe0022
:103a20008c1f78008e1f7800000578000107780051
:103a3000020678000e00e00001003a006e87570091
:103a40008a0578008b047800890578003b4478006b
:103a50000800fb00cdf707000000e000f9ff3a0086
:103a6000d0c2b300804f54000300320000c0e90010
:103a7000804f540002003a008904e800010037003a
:103a8000004478000c0178008e007800090078006e
:103a90003c0007009e8f540001003a000a0f780096
:103aa0009e0f550005003a00e00f5000e08f5800cf
:103ab000e00f5900e08f590018003a00b4c2b3007b
:103ac000844f54000a003a00f4ff2f00f5ff2f0046
:103ad000f6ff2f00f7ff27000400e1000588e10052
:103ae0000690e1000798e1000c003e001f0037003f
:103af000d4c2b300844f54001c003a006022b800c6
:103b000006002000070028000400e1000588e1000d
:103b10000690e1000798e10009003600200220002d
:103b2000807b88006b404000804f54000b003a00bf
:103b30006000b80002002000030028000b003700de
:103b40006022b8006033b8000000520081805a0043
:103b500002015b0083815b0004003700f0ff2f004f
:103b6000f1ff2f00f2ff2f00f3ff27004f0778002f
:103b70004f0678004f05be004f04be004f00b10055
:103b8000000006000f02b000889fbe008a9fbe00a2
:103b90008c9fbe008e1f780080b79f0001077800c1
:103ba0008206780000047800080678000c0478008b
:103bb00038407800e0e79f00804078000100fb007b
:103bc00072f707000000e000f7ff3a00d0c2b30030
:103bd0006fe19700804f51000300320000c0e90000
:103be000804f510002003a000c06e8000100370047
:103bf000e0e79f000d00e00005003500e18f560072
:103c00000300320040022000808f5600070034007d
:103c10006044b8006055b8000e00e0009900320022
:103c20000fb29700040f78005d0037000d00e00030
:103c30000e003200f08f56001a003a0000c3b300a5
:103c40009c4f100017003a001c40900081c7b30041
:103c5000814f50000300320081c5b300814f5000f6
:103c600010003a000c86e8000e003700ad0020007e
:103c700000c3b3009c4f10000a003a001c409000a3
:103c800081c7b300814f5000040032008d00200036
:103c900081c5b300814f500002003a000c86e80055
:103ca0000d0120000c0078008000780001007800f1
:103cb00002c3b300b04f1100fbff3200e1af9f0021
:103cc0008102780095b79f006044b8006055b80045
:103cd0008cbf9f001c00370021e420008140500071
:103ce000e1df9f00616ab900612bb9000800be00e6
:103cf0000a01be00e2050700efda97000502fb00ab
:103d0000cfa2de00612bb900c4b79f00d5b79f00da
:103d1000e6b79f00f7b79f00a8af9f00b9af9f001d
:103d2000caaf9f00dbaf9f004fb29700dfb2970092
:103d30006fb39700ffb397000004420081844a00ec
:103d400002054b0083854b009fb29700a5b79f00eb
:103d5000050378003600fb0096b79f00b20107000c
:103d60000d0178008000780020e42000f8f50700bd
:103d70000000e000d8ff3a000fbe9700afb39700f5
:103d8000870f560009003a006044b8006055b8003b
:103d90000e00e0003b0032000fb697000c0f7800d9
:103da0006044b8006055b800360037002fb0970067
:103db0006fa997008200500070e6200060c07e006e
:103dc0000000fb00008050002000330019003a0082
:103dd0006fda97000400fb00cf80de006109b900b4
:103de0000000540081805c0002015d0083815d0061
:103df0000040e10001c8e10002d0e10003d8e10089
:103e00000c003900616ab900612bb9000a0507008e
:103e10002faa9700bfaa97004fab9700dfab970080
:103e20000400e1000588e1000690e1000798e10048
:103e30000600320020022000807b8800f8ff2f005f
:103e4000f9ff2f000805be000a003700d0c2b300fa
:103e5000efe2970080cf520006003a006000b80001
:103e60006011b80008045000898458000a05590000
:103e70008b8559000e00e000020032002fb397003e
:103e8000060f78000800be000a01be004f07780048
:103e90004f06be004f05be004f04be000f02b1002a
:103ea00000000600f0874700889fbe008a9fbe0082
:103eb0008c9fbe008e1f780000047800814478003b
:103ec0000205be00040678000b00e00002003c0082
:103ed0001b002000aaf7200060c6b30080cf54006a
:103ee0000e00320060c4b30080cf54000b003200db
:103ef00070c6b30080cf54000300320070c4b3001a
:103f000080cf540081003a00e40f46007f00350066
:103f100058089000800f56007c003d000c06e80019
:103f200060c6b30080cf54001000320060c4b300fc
:103f300080cf54000d003200081090000038a3001c
:103f400004003a0058089000808f550001003d00a1
:103f50005b0c9800580890000c005000500c980022
:103f600002003b000000eb00500c98001808900085
:103f7000e80090000c00e00026003c0002c3b30003
:103f8000827078000000e800100c9800d8089000bb
:103f90000100e00003003c00881090000138a300fd
:103fa00005003200e8009000e2c2b30082707800a1
:103fb0000000e800100c9800580890008c00ea00ff
:103fc000810f500001003d000006ea008c00ea006d
:103fd000210c9800000646005c0c98008b0f5600e0
:103fe000010034000b0678003c0c9800e8009000bb
:103ff00018089000008040000c0178008a007800ca
:10400000ebf20700580890000c0650004c0c98008a
:10401000900037008c8f550018003d000080400054
:104020000b0178008a007800e1f207001808900080
:1040300000804500100c98008b0556002b0c980052
:10404000d80890000100e00003003c0088109000b8
:104050000138a30006003200e8009000e2c2b3007d
:1040600082707800380890000000e800300c98005a
:1040700058089000400c98007600370000804000ff
:104080000c0178008a007800c9f207001808900037
:1040900000004600100c98008c855500d808900050
:1040a0000100e00003003c00881090000138a300ec
:1040b00005003200e8009000e2c2b3008270780090
:1040c0000000e800100c980058089000808f550000
:1040d0000100340080057800e80090001808900086
:1040e000008040008c0045000b017800b0f2070012
:1040f000180890000b004000100c98005808900021
:104100008b0550002b0c98005200370018089000c7
:10411000e80090009a7078000000e800100c980009
:10412000d80890000100e00003003c0088109000d7
:104130000138a30005003200e8009000e2c2b3009d
:10414000827078000000e800100c98005808900079
:104150000000e000100034008b05e900808f55005e
:104160000100340080057800e800900018089000f5
:10417000008040008a00e8000b0178008cf2070004
:10418000180890000b004000100c98005808900090
:104190008b0550002b0c9800e80090001808900048
:1041a00000804000095878000007e8000c00e0009b
:1041b00004003500b1c2b300014878008e047800d5
:1041c00004003700d1c2b300014878008e047800a3
:1041d0000c06ea007d8557008006eb0009003700d9
:1041e000a20020008c007800728057007d0007003c
:1041f0007fb097008fb89700016d780000067800b7
:104200008d06e8000c00e000f5ff3c000d00e0002a
:1042100009003a008e04780000c3b300805c780087
:10422000050037008d06e900fc80570061c07e0064
:1042300002c3b300825c40000d00e000f9ff3c00c7
:10424000e80090001808900000804000808454002e
:10425000390c98000810900074006000f00f5000b6
:104260000e003a009808900078009000008040000e
:10427000a808900001004000b8089000010040002c
:10428000c808900001004000f8089000810f50001d
:1042900002003d0000805000000c98004f0778009d
:1042a0004f06be004f05be004f04be000f01b10017
:1042b00000000600e600400011017800050028001b
:1042c000850261006f0161008208780002003200ff
:1042d0001200200011003700a00190001200200001
:1042e0000300e0000d003a00900190000300e000a0
:1042f0000a003a001000e00008003a0036003700db
:10430000640340009608780080017800530b780021
:1043100090097800040878007001510011027800bb
:104320000400e000f6ff3200130037006402400092
:10433000140378004f33de0083814100830873004b
:1043400080017800d3037800cf3bde0014037800af
:1043500006034300068a7300130278000402420039
:10436000100378004f33de00860972009001780058
:10437000038841000201e90091017800ef8f5100ac
:10438000eaff360010003700800178005303780000
:104390004f33dd001002d1000408730064024000b6
:1043a00094037800cf3bdd001303d10086897300ae
:1043b000110378004f33dd009401d100030a73002c
:1043c0009108d1000201e80091017800ff8f5100af
:1043d000edff3e00ef8861009188720002007800d6
:1043e0000000060080027800010378001100090037
:1043f0000203d80080017800830a78000299b9008e
:1044000002015300920298000500780000000600a7
:10441000907b80000000e0000100320000000100fd
:1044200000f7200000000600800078001104b100b1
:10443000030035009101b10001003c000050a000d4
:104440000000060000c0da00000006000a00fa00c2
:10445000e20f500034003e00a07b8000e10f5000ce
:1044600003003200e20f500011003a000c00370048
:10447000032220000300e00001003a000040da00bf
:104480002002e200020035002822ef0021e2a8000d
:104490002342ab000d003a002342a8000b00370076
:1044a000032320000300e00001003a000040da008e
:1044b0003002e200020035003822ef0031e2a800ad
:1044c0003342ab0001003a003342a8008201780079
:1044d0000b0037003102fb00e10f500004003a00ee
:1044e0002322ab00feff3a002411880003003700ae
:1044f0003322ab00feff3a00a41188008301e900db
:104500000300e000f3ff3a00e10f500003003a001f
:104510002302ab00feff32000b0037003302ab007a
:10452000feff32000800370033002000b3bf9f00b9
:10453000c0bf9f00d1bf9f00e2bf9f006a805700ad
:10454000c0ff07006fb99700020078000080fa00f2
:104550000000060000c0da00000006000a00fa00b1
:1045600011002000b1bf9f00c0bf9f006a805700ac
:10457000f8ff07004fb897000080fa00000006001f
:1045800000c0da00000006000a00fa005100200016
:10459000b1bf9f00c0bf9f006a805700f8ff0700af
:1045a0005fb897000080fa0000000600889fbe00f8
:1045b00080047800e07b80000000e00004003a0006
:1045c0000e0007000084eb000000e000080035004a
:1045d000e87b80000900e00005003200090044008b
:1045e000060007000000e00001003d000084eb0031
:1045f000080078004f04be0000000600800078002c
:104600000100e00003003a0000002000e07b880089
:10461000000005000080eb0002002000828f5000a7
:1046200002003e00e17b88000000eb000000060075
:10463000889fbe008a9fbe008c1f78001301070070
:104640001a01330003866c006450e1002e00320032
:104650006420e100330032006150e1002f0032009d
:104660006120e1003100320085855500eb07b00084
:104670000900200008042000050037000804440059
:1046800089844c000a0031000603430087834b00f5
:104690000001530081815b00f8ff33000203be007c
:1046a0000800a0000804440089844c00f6ff39008b
:1046b000c639dd00830173000100320013002000c1
:1046c0008904d1000884d3000998a30005003200b2
:1046d0000800a7000300a0008904d1000884d300cb
:1046e0008b05e8008904d1000884d3000001eb00a9
:1046f0000281d200fd00070001f0a1000cf0a7002c
:1047000001f0a000f20037006420e100f400320064
:104710000801be000200be00f7ff37006120e10083
:10472000ef0032006000b800f3ff37000000200007
:1047300001f82700f0ff3700889fbe008a9fbe0067
:104740008c1f7800d1000700d800330003866c006e
:104750006450e100240032006420e10027003200b0
:104760006150e100220032006120e10021003200ae
:104770008b854200eb07b1000134b800003ab80065
:104780000804420089844a00013ab8000030b800a9
:104790008880400009014a00040033000000400006
:1047a00081804800020149008b05e900c909dd004c
:1047b000830170000100320013002000c814de00e5
:1047c0004814dd004709de001200b200c808de0010
:1047d00008847000c500070001f0a1000cf0a700dc
:1047e00001f0a000ba0037006120e100bc003200f7
:1047f0000801be000200be00f7ff37006150e10073
:10480000fcff3a00b600370003f0a200889fbe000c
:104810008a9fbe008c1f78009c000700a300330015
:104820006450e1004f0032006420e1005200320089
:1048300003826c0007003b000905d0000306d0008e
:10484000820f54000c065d000200390002003200a5
:1048500089017800030678008582550004003d0038
:104860000003fd008103fd008502ea008b85420004
:10487000840f720002003b0060001000e08018000e
:104880006011b8000005eb007a28e1000a00390049
:1048900006007800c75ddd00f707b200878075006d
:1048a0002d003700828171000a01780061056000e7
:1048b0008180d1000080d3008502e900f9ff3b0030
:1048c000060440008784480002003b006004140096
:1048d000e0841c000988a300070032008a8171006f
:1048e00082817100610164008904d1000884d300d1
:1048f0008b05e800170037000978a30013003a0081
:104900000b00e000130034008b05e90008044400ac
:1049100089844c000a4474000978a3000d003a0011
:104920000b00e000070034008b05e9000804440098
:1049300089844c0001003a000b0020000978a30094
:10494000f7ff32000001eb000200370082817100a6
:104950000a017800650007000cf0a70001f0a00034
:104960005b0037006420e10002003a00838f6c0096
:104970005b0033000801be000200be005400370097
:104980000001be007f0007000470a70003f0a10033
:1049900003f8a30013003a006509b10010003200cb
:1049a000090035006928e1000200350001002800f7
:1049b0000000050000004000818048008502e900f9
:1049c000fcff3a0000000600f88f420005003500a9
:1049d0008100d1000080d3008502e800fcff3a008e
:1049e000000006008000eb0000000500140020001d
:1049f00079003700f4ff2f00770037004f89de0081
:104a0000820178008f0037000001be005d000700c2
:104a10000470a70003f0a1006509b1001600320080
:104a20000d0035006828e10006003500f0ff2f007a
:104a3000f1ff27000300e00013003b000100280005
:104a40000000050000004000818048008502e90068
:104a5000fcff3a0008003700f88f420002003c00db
:104a60008000eb00000005008100d1000080d30031
:104a70008502e800fcff3a000300e00002003b0072
:104a800060001000e0801800000006000004be0076
:104a90003c0007000003be000405be000200be008b
:104aa00038000700844f7500000006000200be00b9
:104ab0006450e100050036006420e1000200360089
:104ac0000968a30001003a000800be000160a000d0
:104ad0004f0678004f05be004f04be0000000600e0
:104ae000f0ff2f00f1ff2700f9ff370081002000c1
:104af000618055000b003d000b00200061fe2f007f
:104b00000100e1001d003400828171006101640038
:104b10008904d1000884d3000000e800faff3a00bd
:104b2000710020006100640003007000020060005a
:104b30000900320061044400e0844c000988a500ab
:104b4000050032008b05e8006808e10002003a0029
:104b50008904d1000884d300f20f20000258e1003c
:104b600005003d00c75ddd00f907b20089807500d2
:104b700008007800000006000bf827008b00780082
:104b800000000500c70ade00f107b200f50fb20011
:104b900008003200e1cf4200020032000170a000a4
:104ba00024000500810f7000010032000408050098
:104bb00044000500810f700002003a001400050057
:104bc0008502e9000000400081c04800fcff3b0076
:104bd0000170a00024000500889fbe008a9fbe00cf
:104be000841f7800a9ff07004f00780011003300f0
:104bf000f0ff2f00838f6c0006003b00040565006a
:104c00000a00a7000800370009f0a60010002000e5
:104c100008003700820f5400838f5c0003003900c6
:104c20001000200001003e000000200009f0a70055
:104c30000000ea004f05be004f04be000000e00087
:104c400000000600881f7800030478000300e000dd
:104c500007003d0060001000e080180060011900ae
:104c6000e081190002003b0001f02d000300370035
:104c70000400070008f0a70001f0a0004f0478002e
:104c800000000600889fbe008a9fbe000082700060
:104c90000402710004827100260032000004be008c
:104ca0000200be006011b8006b09200095022000d0
:104cb0000182cf000a0039000541b1000082cf0017
:104cc000070039000541b1000982cf000400390016
:104cd0000541b1000882cf00010039000541b10053
:104ce00005425200120032000a003b00828171002e
:104cf000610164008100d1000080d3008984d30069
:104d00000884d3008b05e8000442e800f7ff3a006e
:104d1000070037000804440089844c000000480064
:104d2000818048008b05e9000442e900f9ff3a0060
:104d30006eff07004f05be004f04be0000000600d6
:104d4000810378008fff07000001be006000b800fb
:104d50000478a30013003a006220e10015003e0031
:104d60000d0039008301d1000281d3008180d3007e
:104d70008301d1000281d3008180d3008301d1005f
:104d80000281d3008180d3000538b000c42add0041
:104d9000f300b2008381720007f0a70003f0a000c7
:104da00000000600f3ff2700f2ff2f006110b9009a
:104db000fbff370003ff2700f7ff37008f1fd100ed
:104dc000d80107008f87e9000000e000000006001e
:104dd000839f68000100e00002003d0060001000b9
:104de000e08018000300e00002003d0060011100b7
:104df000e0811900980007004f00e00002003b002e
:104e000060001000e0801800000006002800fa0092
:104e1000889fbe008a9fbe008c9fbe0003866b00e9
:104e2000e90107006400e100440032006408e10089
:104e30004a0032006100e100460032006108e100f2
:104e400049003200ec0647006000b8003d02be0099
:104e50003d03be00f48657006011b8003d04be005b
:104e60003d05be007d0320000b0037000000a000c0
:104e70008d06e900130032000402420085824a00d8
:104e800006034b0087834b000000400081804800f0
:104e900002014900838149000802520089825a00b8
:104ea0000a035b008b835b00f0ff3b0008024200bb
:104eb00089824a000a034b008b834b008d06e90070
:104ec000edff3a008482720086827200f707b2001a
:104ed0008782720001003200150020001e0490003d
:104ee0003e0b900006035400e63fb0000368a300a9
:104ef000070032000000a7000500a0008301d100d8
:104f00000281d3008180d3000080d3000603e80033
:104f10008301d1000281d3008180d3000080d300bf
:104f20000002eb000482d200c001070003f0a100e0
:104f30000cf0a70003f0a000b7013700640247009f
:104f40006408e100b10132003400be003401be004b
:104f5000f6ff37006108e100ac0132006011b800d3
:104f60006000b800f1ff370003ff270002002000b7
:104f7000fbff37001400fa00889fbe008a9fbe0026
:104f80008c9fbe000004be000205be006800470002
:104f90000a90be000890be00d00107000070a70074
:104fa0000bf0a100304320009e029000808252004e
:104fb000b0fe2f000028e10011003d00b0fc2f00e2
:104fc0000028e100150034001e0990008e089000b2
:104fd0007e0090000501b0000201d1008180d30065
:104fe0000080d3008502e800fbff3a000b00e000e0
:104ff00089013b0060001000e08018008601370046
:10500000f0ff2f00f1ff27000b00e00082013b00c2
:1050100001002800000020007f0137006000b80078
:105020007d0137004f89de0082017800d201370010
:1050300007f0a200fc023700809feb003901070057
:105040008f87e9000000e000000006000200070072
:105050000400be00000006006022b8000602200026
:105060000000d0008180d2000482d2008582d2006c
:105070000000a0000202520083825a0003003100a7
:105080000202420083824a000000a1000603e900f8
:10509000f3ff3a0000000600889fbe008a9fbe0012
:1050a00030044200b0844a0030054b0090854b002c
:1050b0006000b1000898be000a90be00c100070061
:1050c00002003100680040001008e8004f05be00f3
:1050d0004f04be0000000600889fbe008a9fbe00ed
:1050e0003004be002005be000418540005985c0082
:1050f00006185d0007985d0011002000b100070050
:10510000010039008000eb00108810004f05be0040
:105110004f04be00000006001200fa00889fbe0087
:105120008a9fbe008c9fbe00e0b79f00f1b79f0032
:1051300082bf9f0093bf9f000605be000404be000f
:105140000000eb00d0b79f00c0b79f00b0b79f0032
:10515000a0b79f0090b79f000006eb005fb19700db
:10516000cfb09700820141003fb097000200e000fd
:1051700004003d00980007007e805700c6ff07002e
:1051800003003700940007007e805700d2ff07001d
:10519000dfb697000d00e0000c0035006fb29700fd
:1051a000ffb297000fbb97009fbb97001000200035
:1051b000010020006011b8000002720081827200bc
:1051c0000203730083837300580007000c06e80095
:1051d00001042000810f5600e0ff3a000d00e000be
:1051e00004003d000802be000a03be007e80570096
:1051f000a9ff07005fa897000000e00005003a0043
:105200001fb29700afb297003fb39700cfb397009c
:10521000460007006fb09700ffb097000fb99700e6
:105220009fb997004f06be004f05be004f04be0059
:105230000080fa0000000600881f78001800200097
:10524000881f7800b4ff07008f87e9004f047800bb
:1052500000000600801feb00afff07008f87e9000a
:1052600000000600889fbe008a9fbe003d00070028
:1052700007003d004000070018002000450007001f
:1052800008003d002b0007000004eb00050037007c
:105290000004eb003f00070002003d00250007006e
:1052a00018002000e4ff07000800e00001003200c1
:1052b0003d0007004f05be004f04be000000060081
:1052c000889fbe008a9fbe008c1f780025000700c3
:1052d00008003d00280007001c0020000820e10015
:1052e00009a8e1000ab0e1000bb8e10007003d00a9
:1052f000050037000006eb002600070003003d0014
:105300006044b8006055b8000c000700d1ff0700ea
:105310000c00e00001003200230007004f06780077
:105320004f05be004f04be00000006000800070045
:10533000000006006044b8006055b8000402540044
:1053400085825c0006035d0087835d000000060027
:10535000a4b79f00b5b79f00c6b79f00d7b79f00ff
:1053600000000600e00f5000e08f5800e00f5900e9
:10537000e08f5900000006006044b8006055b80096
:105380000000540081805c0002015d0083815d00ab
:1053900000000600e00f5200e08f5a00e00f5b00b3
:1053a000e08f5b00000006006022b8006033b800a8
:1053b0000000520081805a0002015b0083815b0083
:1053c000000006000440e10005c8e10006d0e1004d
:1053d00007d8e100000006004f09de00828171005d
:1053e000b3b79f004f01de008180400082807000d3
:1053f000a1b79f008fb097004f09de00000040006a
:105400000200700090b79f007fa897004f01de0058
:10541000818040008280700081b79f000d000700ee
:105420004f3ade000000400004007000f0af9f0023
:10543000080007000402420085824a0006034b0070
:1054400087834b00c2ff07000802be000a03be00ac
:10545000000006002fb29700bfb297004fb397002d
:10546000dfb3970000000600020ab900001bb90074
:105470000200b800810042008100430000000600e5
:10548000889fbe008a9fbe008c1f78000006eb003c
:10549000e00f5000e08f5800e00f5900e08f5900f6
:1054a00007003d006044b8006055b800000054009b
:1054b00081805c0002015d0083815d001c00200092
:1054c000e00f5200e08f5a00e00f5b00e08f5b00be
:1054d00007003d006044b8006055b8000402540065
:1054e00085825c0006035d0087835d000c00a200de
:1054f000b10007000c00e000060032006022b80096
:105500006033b8000000520081805a0002015b0045
:1055100083815b004f0678004f05be004f04be003c
:1055200000000600889fbe008a9fbe008c9fbe00c0
:105530000404be000605be00809fbe00829fbe0020
:10554000bf000700040678000800be000a01be0084
:10555000bb000700840678004f03be004f02be0068
:105560008d4f76007fb0970013003300f0ff2f00bf
:105570008b8f6b0006003b000d0666000c00a70039
:105580000a00370007f0a600100020000a003700cc
:10559000880f5200898f5a008a0f5b008b8f5b0047
:1055a000030039001000200001003e000000200030
:1055b00007f0a7000000ea004f06be004f05be003e
:1055c0004f04be0000000600680447000294be00bd
