:020000040000fa
:080000000002040000000000f2
:020000040000fa
:0400080014030000dd
:020000040000fa
:04000c00d802000016
:020000040000fa
:04001000de0200000c
:020000040000fa
:04001400e402000002
:020000040000fa
:04001800ea020000f8
:020000040000fa
:04001c00f0020000ee
:020000040000fa
:0400200014030000c5
:020000040000fa
:0400240014030000c1
:020000040000fa
:0400280014030000bd
:020000040000fa
:04002c0014030000b9
:020000040000fa
:0400300014030000b5
:020000040000fa
:0400340014030000b1
:020000040000fa
:0400380014030000ad
:020000040000fa
:04003c0014030000a9
:020000040000fa
:0400400014030000a5
:020000040000fa
:0400440014030000a1
:020000040000fa
:04004800140300009d
:020000040000fa
:04004c001403000099
:020000040000fa
:040050001403000095
:020000040000fa
:04005400180300008d
:020000040000fa
:04005800140300008d
:020000040000fa
:04005c001403000089
:020000040000fa
:040060001403000085
:020000040000fa
:040064001403000081
:020000040000fa
:04006800140300007d
:020000040000fa
:04006c001403000079
:020000040000fa
:040070001403000075
:020000040000fa
:040074001403000071
:020000040000fa
:04007800140300006d
:020000040000fa
:04007c001403000069
:020000040000fa
:040080001403000065
:020000040000fa
:040084001403000061
:020000040000fa
:04008800140300005d
:020000040000fa
:04008c001403000059
:020000040000fa
:040090001403000055
:020000040000fa
:040094001403000051
:020000040000fa
:04009800140300004d
:020000040000fa
:04009c001403000049
:020000040000fa
:0400a0001403000045
:020000040000fa
:0400a4001403000041
:020000040000fa
:0400a800140300003d
:020000040000fa
:0400ac001403000039
:020000040000fa
:0400b0001403000035
:020000040000fa
:0400b4001403000031
:020000040000fa
:0400b800140300002d
:020000040000fa
:0400bc001403000029
:020000040000fa
:0400c0001403000025
:020000040000fa
:0400c4001403000021
:020000040000fa
:0400c800140300001d
:020000040000fa
:0400cc001403000019
:020000040000fa
:0400d0001403000015
:020000040000fa
:0400d4001403000011
:020000040000fa
:0400d800140300000d
:020000040000fa
:0400dc001403000009
:020000040000fa
:0400e0001403000005
:020000040000fa
:0400e4001403000001
:020000040000fa
:0400e80014030000fd
:020000040000fa
:0400ec0014030000f9
:020000040000fa
:0400f00014030000f5
:020000040000fa
:0400f40014030000f1
:020000040000fa
:0400f80014030000ed
:020000040000fa
:0400fc0014030000e9
:020000040000fa
:0401000014030000e4
:020000040000fa
:0401040014030000e0
:020000040000fa
:0401080014030000dc
:020000040000fa
:04010c0014030000d8
:020000040000fa
:0401100014030000d4
:020000040000fa
:0401140014030000d0
:020000040000fa
:0401180014030000cc
:020000040000fa
:04011c0014030000c8
:020000040000fa
:0401200014030000c4
:020000040000fa
:0401240014030000c0
:020000040000fa
:0401280014030000bc
:020000040000fa
:04012c0014030000b8
:020000040000fa
:0401300014030000b4
:020000040000fa
:0401340014030000b0
:020000040000fa
:0401380014030000ac
:020000040000fa
:04013c0014030000a8
:020000040000fa
:0401400014030000a4
:020000040000fa
:0401440014030000a0
:020000040000fa
:04014800140300009c
:020000040000fa
:04014c001403000098
:020000040000fa
:040150001403000094
:020000040000fa
:040154001403000090
:020000040000fa
:04015800140300008c
:020000040000fa
:04015c001403000088
:020000040000fa
:040160001403000084
:020000040000fa
:040164001403000080
:020000040000fa
:0402080014030000db
:020000040000fa
:04020c00f6020000f6
:020000040000fa
:04021000fc020000ec
:020000040000fa
:0402140002030000e1
:020000040000fa
:0402180008030000d7
:020000040000fa
:04021c000e030000cd
:020000040000fa
:0402200014030000c3
:020000040000fa
:0402240014030000bf
:020000040000fa
:0402280014030000bb
:020000040000fa
:04022c0014030000b7
:020000040000fa
:0402300014030000b3
:020000040000fa
:0402340014030000af
:020000040000fa
:0402380014030000ab
:020000040000fa
:04023c0014030000a7
:020000040000fa
:0402400014030000a3
:020000040000fa
:04024400140300009f
:020000040000fa
:04024800140300009b
:020000040000fa
:04024c001403000097
:020000040000fa
:040250001403000093
:020000040000fa
:04025400140300008f
:020000040000fa
:04025800140300008b
:020000040000fa
:04025c001403000087
:020000040000fa
:040260001403000083
:020000040000fa
:04026400140300007f
:020000040000fa
:04026800140300007b
:020000040000fa
:04026c001403000077
:020000040000fa
:040270001403000073
:020000040000fa
:04027400140300006f
:020000040000fa
:04027800140300006b
:020000040000fa
:04027c001403000067
:020000040000fa
:040280001403000063
:020000040000fa
:04028400140300005f
:020000040000fa
:04028800140300005b
:020000040000fa
:04028c001403000057
:020000040000fa
:040290001403000053
:020000040000fa
:04029400140300004f
:020000040000fa
:04029800140300004b
:020000040000fa
:04029c001403000047
:020000040000fa
:0402a0001403000043
:020000040000fa
:0402a400140300003f
:020000040000fa
:0402a800140300003b
:020000040000fa
:0402ac001403000037
:020000040000fa
:0402b0001403000033
:020000040000fa
:0402b400140300002f
:020000040000fa
:0402b800140300002b
:020000040000fa
:0402bc001403000027
:020000040000fa
:0402c0001403000023
:020000040000fa
:0402c400140300001f
:020000040000fa
:0402c800140300001b
:020000040000fa
:0402cc001403000017
:020000040000fa
:0402d0001403000013
:020000040000fa
:0402d400140300000f
:020000040000fa
:0402d800140300000b
:020000040000fa
:0402dc001403000007
:020000040000fa
:0402e0001403000003
:020000040000fa
:0402e40014030000ff
:020000040000fa
:0402e80014030000fb
:020000040000fa
:0402ec0014030000f7
:020000040000fa
:0402f00014030000f3
:020000040000fa
:0402f40014030000ef
:020000040000fa
:0402f80014030000eb
:020000040000fa
:0402fc0014030000e7
:020000040000fa
:0403000014030000e2
:020000040000fa
:0403040014030000de
:020000040000fa
:0403080014030000da
:020000040000fa
:04030c0014030000d6
:020000040000fa
:0403100014030000d2
:020000040000fa
:0403140014030000ce
:020000040000fa
:0403180014030000ca
:020000040000fa
:04031c0014030000c6
:020000040000fa
:0403200014030000c2
:020000040000fa
:0403240014030000be
:020000040000fa
:0403280014030000ba
:020000040000fa
:04032c0014030000b6
:020000040000fa
:0403300014030000b2
:020000040000fa
:0403340014030000ae
:020000040000fa
:0403380014030000aa
:020000040000fa
:04033c0014030000a6
:020000040000fa
:0403400014030000a2
:020000040000fa
:04034400140300009e
:020000040000fa
:04034800140300009a
:020000040000fa
:04034c001403000096
:020000040000fa
:040350001403000092
:020000040000fa
:04035400140300008e
:020000040000fa
:04035800140300008a
:020000040000fa
:04035c001403000086
:020000040000fa
:040360001403000082
:020000040000fa
:04036400140300007e
:020000040000fa
:10040000cf8f20000e7f24000e0188000000000026
:10041000000020000000e000020032000001200087
:1004200020028800140007000f0107000000e00010
:1004300003003a00a017210001002000020037004d
:100440000000200001002000810f70000100320038
:1004500014000700000020000000e000020032004d
:100460000000020000000000da120200000000009c
:100470000040da000000fe004440a90020072000f0
:100480000000e0000300320000002000a00188000e
:100490004440a800000006008a1f78008b1f7800e7
:1004a0000000060091018800800478000000eb0045
:1004b0001a003700e284440032a0b4009905ba0063
:1004c000e284440032a0b4009906ba00e2844400f9
:1004d00032a0b4000006eb00476fde00fd07b2005b
:1004e000636ce10003003a00ebff07000000eb0043
:1004f0000a003700606ce10004003a00005deb0088
:100500008b05e900fdff3e00040037006168e10053
:10051000010032000086eb000b00070019c7ba008b
:100520001905ba000e04e00003003a000a00e000da
:10053000e0ff3a0000000600fe07b2009e018800be
:100540008a047800f5ff3700395dba008b05e900b1
:100550000c003200295dba008b05e900080032006a
:100560000c00e00003003a00e284440032a0b40032
:10057000f5ff370019ddba008b05e900faff3a00f4
:100580008904e800e184440032a0b40000000600c1
:10059000f4130400000000005607040000000000ef
:1005a000580d0400000000000000040000000000de
:1005b0000000fa008020a900ffff37000000fa00c9
:1005c0008060a900ffff37000000fa008040a9000a
:1005d000ffff37000000fa008080a900ffff37000e
:1005e0000000fa0080a0a900ffff37000000fa0019
:1005f0008020a900ffff37000000fa008060a900fa
:10060000ffff37000000fa008040a900ffff37001d
:100610000000fa008080a900ffff37000000fa0008
:1006200080a0a900ffff37000000fa00ffff37009d
:100630003600f800809fbe00829fbe00849fbe00ef
:10064000869fbe000000fa008560a900301180007e
:10065000004078008040780080882000c7060700ae
:1006600080882000e70607000004e0000200320056
:1006700080882000ef0607000080fa004f03be00cc
:100680004f02be004f01be004f00be003600f90011
:10069000004006000a00fa0011002000b1bf9f00d0
:1006a000c0bf9f006a805700b60507004fb897008b
:1006b0000080fa00000006000a00fa00e20f500075
:1006c00034003e00a0478000e10f500003003200dc
:1006d000e20f500011003a000c0037000322200006
:1006e0000300e00001003a000040da002002e200ce
:1006f000020035002822ef0021e2a8002342ab00cf
:100700000d003a002342a8000b003700032320000d
:100710000300e00001003a000040da003002e2008d
:10072000020035003822ef0031e2a8003342ab006e
:1007300001003a003342a800820178000b00370024
:100740003102fb00e10f500004003a002322ab000d
:10075000feff3a0024118800030037003322ab006b
:10076000feff3a00a41188008301e9000300e000c5
:10077000f3ff3a00e10f500003003a002302ab0000
:10078000feff32000b0037003302ab00feff3200e9
:100790000800370033002000b3bf9f00c0bf9f0098
:1007a000d1bf9f00e2bf9f006a8057007705070016
:1007b0006fb99700020078000080fa000000060080
:1007c0000a00fa0051002000b1bf9f00c0bf9f0087
:1007d0006a8057006f0507005fb897000080fa0035
:1007e00000000600889fbe0080047800d04780008b
:1007f0000000e00004003a000e0007000084eb0057
:100800000000e00008003500d84780000900e00043
:100810000500320009004400060007000000e00067
:1008200001003d000084eb00080078004f04be008a
:1008300000000600800078000100e00003003a009c
:1008400000002000d0478800000005000080eb0079
:1008500002002000828f500002003e00d147880035
:100860000000eb00000006000000050003f0a200fd
:10087000889fbe008a9fbe008c1f7800f50007008d
:10088000fc0033006450e1004f0032006420e100be
:100890005200320003826c0007003b000905d000c3
:1008a0000306d000820f54000c065d0002003900e0
:1008b0000200320089017800030678008582550025
:1008c00004003d000003fd008103fd008502ea00f5
:1008d0008b854200840f720002003b006000100014
:1008e000e08018006011b8000005eb007a28e100f4
:1008f0000a00390006007800c75ddd00f707b20086
:10090000878075002d003700828171000a01780010
:10091000610560008180d1000080d3008502e9007c
:10092000f9ff3b00060440008784480002003b00ba
:1009300060041400e0841c000988a3000700320052
:100940008a81710082817100610164008904d10093
:100950000884d3008b05e800170037000978a3004e
:1009600013003a000b00e000130034008b05e9008f
:100970000804440089844c000a4474000978a300e8
:100980000d003a000b00e000070034008b05e90081
:100990000804440089844c0001003a000b00200048
:1009a0000978a300f7ff32000001eb0002003700d6
:1009b000828171000a0178006b0007000cf0a7002b
:1009c00001f0a000b40037006420e10002003a000a
:1009d000838f6c00b40033000801be000200be002b
:1009e000ad003700889fbe008a9fbe008c1f780034
:1009f000980007009f00330003866c006450e100fc
:100a00002e0032006420e100330032006150e1002a
:100a10002f0032006120e100310032008585550051
:100a2000eb07b00009002000080420000500370093
:100a30000804440089844c000a0031000603430086
:100a400087834b000001530081815b00f8ff330076
:100a50000203be000800a0000804440089844c0082
:100a6000f6ff3900c639dd00830173000100320052
:100a7000130020008904d1000884d3000998a30042
:100a8000050032000800a7000300a0008904d1007f
:100a90000884d3008b05e8008904d1000884d300c2
:100aa0000001eb000281d2002f00070001f0a1003d
:100ab0000cf0a70001f0a000770037006420e100ef
:100ac000790032000801be000200be00f7ff3700c7
:100ad0006120e100740032006000b800f3ff3700cd
:100ae0000000200001f82700f0ff3700140020006c
:100af000a4003700f4ff2f00a20037000001be0061
:100b00003f0007000470a70003f0a10003f8a30052
:100b100013003a006509b1001000320009003500e9
:100b20006928e100020035000100280000000500ee
:100b300000004000818048008502e900fcff3a0087
:100b400000000600f88f4200050035008100d1004a
:100b50000080d3008502e800fcff3a000000060098
:100b60008000eb000000050081002000618055003e
:100b70000b003d000b00200061fe2f000100e10092
:100b80001d00340082817100610164008904d1007c
:100b90000884d3000000e800faff3a00710020004a
:100ba0006100640003007000020060000900320070
:100bb00061044400e0844c000988a500050032006f
:100bc0008b05e8006808e10002003a008904d100c2
:100bd0000884d300f20f20000258e10005003d0018
:100be000c75ddd00f907b200898075000800780054
:100bf000000006000bf827008b00780000000500bd
:100c0000c70ade00f107b200f50fb200080032009b
:100c1000e1cf4200020032000170a0002400050074
:100c2000810f700001003200040805004400050037
:100c3000810f700002003a00140005008502e900ef
:100c40000000400081c04800fcff3b000170a00094
:100c5000240005000004be00e9ff07000003be00f9
:100c60000405be000200be00e5ff0700844f7500ca
:100c7000000006000200be006450e10005003600de
:100c80006420e100020036000968a30001003a0078
:100c90000800be000160a0004f0678004f05be00ae
:100ca0004f04be0000000600f0ff2f00f1ff2700f8
:100cb000f9ff3700889fbe008a9fbe008c1f780016
:100cc000e4ff0700ebff330003866c006450e10093
:100cd000240032006420e100270032006150e1006e
:100ce000220032006120e100210032008b854200a9
:100cf000eb07b1000134b800003ab8000804420024
:100d000089844a00013ab8000030b8008880400069
:100d100009014a00040033000000400081804800bf
:100d2000020149008b05e900c909dd00830170005b
:100d30000100320013002000c814de004814dd005a
:100d40004709de001200b200c808de000884700007
:100d500085ff070001f0a1000cf0a70001f0a00042
:100d6000cdff37006120e100cfff32000801be0057
:100d70000200be00f7ff37006150e100fcff3a00bf
:100d8000c9ff3700889fbe008a9fbe00841f78007d
:100d9000b0ff07004f00780011003300f0ff2f0074
:100da000838f6c0006003b00040565000a00a70065
:100db0000800370009f0a6001000200008003700e6
:100dc000820f5400838f5c00030039001000200064
:100dd00001003e000000200009f0a7000000ea002a
:100de0004f05be004f04be000000e00000000600fa
:100df0008001780002003700815978000201e90083
:100e00000200e000fcff3a000000060081822000a2
:100e100000003700889fbe008a1f78000004be00d3
:100e2000c900900069009000808f500005003900d3
:100e300009007800c60107008080eb000000e00098
:100e400016003500084578004900900008587800e1
:100e5000c00498001900780000b8a30004003a000c
:100e600000a8a30007003200ea4f540005003a0032
:100e700009007800040107008080eb000000e0001a
:100e800006003a0000c02000190060000200320095
:100e900049009000e00498008a80fb00010078007f
:100ea0004f0578004f04be0000000600889fbe007a
:100eb000000478000100780082047800880178003e
:100ec00009017800110020002a010700890f500055
:100ed000010032000004eb00080078004f04be005f
:100ee000000006000000fa00e88157004fb99700a3
:100ef0008182200060752000020007000080fa0057
:100f0000000006006200fa00889fbe008a1f780079
:100f100000057800810478000204780083007800de
:100f200080f92f000f0040008c0207009a979f0065
:100f3000a9979f000000eb00b09f9f001885fb0061
:100f40008a04fb000a05ea004f55de00500220002b
:100f5000808f54000d003200e10f55000b003a0065
:100f60000a017800880078002f9097009f919700e1
:100f700003000100a0979f000000e0008e003200f7
:100f80003f9897000000e800b09f9f000a044400cb
:100f900050022000808f5400040032000900e0005d
:100fa000e6ff3a003f989700840037000000eb000e
:100fb000909f9f00809f9f00f0979f00e0979f0069
:100fc000d0979f00c0979f0007003700e18d200059
:100fd0000100500000004000218d200061007800d9
:100fe000df98970001007000d09f9f008804780070
:100ff00009047800384578008a00fb00e08d200065
:10100000410107000000e000f0ff3a00a1c2b30078
:10101000814f55000e003a00cf8897000180e9000b
:10102000c08f9f0010007800c09f9f000000e0006c
:1010300005003d000000ea00c09f9f005f989700f8
:101040000020a000d09f9f000904e8000f00370097
:10105000c09f9f000000eb0005003700f2ff270053
:10106000820f5000020032006a01b9000280400085
:101070000904780088047800b900fb000103b1007e
:10108000e98f5000f5ff3600c09f9f00e0c2b3001b
:10109000984f1000020032000080eb00190037006a
:1010a000a0c2b300d84f100007003a00cf889700c5
:1010b0000180e900c08f9f0010007800a09f9f0072
:1010c0000804e800100037000000eb00a09f9f001c
:1010d0008800780005003700f3ff2700830f5000d9
:1010e000020032006a02b9000400410001047800e5
:1010f000880078003101fb000203b100e90f5100c4
:10110000f5ff3600a09f9f00984478008900fb00ff
:10111000a08c2000fc0007000000e000020032006c
:101120000804e800010037008044eb00c97f9f00fd
:1011300080c6b30080cf540004003a0098cf14005a
:101140000a003a006640500006003700c0c6b300ef
:1011500080cf540005003a0098cf140003003a00f5
:1011600065404000c07f9f000804e8001801fb00b4
:10117000e3fb2f008f81410081f92f008f80400019
:10118000a0f92f000f004000100007000000e00051
:1011900009003a00e1fb2f008f804000a0f92f00ea
:1011a0000f004000310107000000e00002003500a0
:1011b0000804e80061ff37000080eb004f0578006d
:1011c0004f04be000080fa0000000600889fbe00a9
:1011d0008a1f78000004780030c5b300804f5100aa
:1011e0000800320030c7b300804f510005003200c4
:1011f00051c2b30078009000814f510017003a00af
:10120000140037001180e90080087800100578008c
:101210006a049800d80c90000900e00004003d002a
:101220000a007800c4000700800478000700370037
:10123000090178008000eb000a007800a100070097
:101240000000e000010032008a045000190c9800f0
:101250000900370082717800050037008081410065
:101260000204e00001003a00014178008249780060
:101270000000e800700498000000eb004f057800c3
:101280004f04be0000000600889fbe008a1f780041
:10129000000478000800e0000d003a006887200094
:1012a000700544008004eb00580078000000e00066
:1012b00004003200f4ff07000000e00001003d00e0
:1012c0008084eb008a0f5400f7ff3a0025003700b6
:1012d00000002200180060008004eb0021003200b2
:1012e000a80490000f003700090151003840900019
:1012f0000000fb0089007800effc07000000e00020
:1013000007003c002800900040049800600498000a
:10131000500c98001890a0008084eb00110037005a
:101320008084440048019000828f5400eeff390011
:1013300028009000400498009800780002c0200027
:101340000281600001003a003800900001e8a3002b
:10135000020032006004980001003700500c980031
:101360008004eb00090078004f0578004f04be00b0
:1013700000000600889fbe008a9fbe008c9fbe00b2
:101380008e1f7800000678000104780002007800c3
:10139000830478000881b900020778000200e000a9
:1013a000420032000800e00041003200820578006f
:1013b000c900900069009000808f5000040039003f
:1013c00009007800620007000000e00029003500f5
:1013d00000402000190060000a0032000b01780074
:1013e000a10020000c00780036000700800678007d
:1013f0000d00e00006003200610516000a85460077
:10140000040037000b0578008006eb000100370070
:101410000b05780049009000e900900080805000a2
:101420008a8f500002003100010578008006eb0031
:101430000a0178008c0078002c0007008a8555008e
:10144000490090000a004000c00498000d00e00030
:1014500004003200090078008bff07000000e00064
:1014600004003a000b00e000020032000a064600c9
:10147000cfff37000080200019006000020032001a
:101480000900780080ff070000c0200019006000fc
:101490000200320049009000e00498008b055700dc
:1014a000110009008885d800010037000000eb001a
:1014b0004f0778004f06be004f05be004f04be0028
:1014c0000000060003003700b0cf10000500320016
:1014d0000201e900800178000200e000faff3a0012
:1014e000000005000300780000000600800178007d
:1014f00002003700b15978000201e9000200e00063
:10150000fcff3a0000000600020037000304e00080
:10151000060032000001780002007800b041780037
:1015200081cf5100f9ff3a00010037000001eb00c4
:1015300002007800000006008000780001017800b9
:101540003104e000fdff3a000000510000000600f9
:10155000889fbe008a1f780000047800c8009000b1
:10156000680190000000eb00828f50003c003900c1
:10157000180078002200290002016000e20f5100eb
:1015800007003200012024000000e00001003d00bf
:1015900001202000008c70000080eb00300037003c
:1015a0000200260002006000820f500009003a008d
:1015b00038009000808f5000060039000800780045
:1015c00031ff0700800078000080eb000100e000a0
:1015d00023003a001805780000c0200000006500d4
:1015e00018003a00a80490006002200008004000a3
:1015f000808f540013003a0000202000ad01070046
:10160000200498000000e00005003a00290498003a
:10161000490498008904e80039049800080037005c
:101620000a60a0000a0c7800400498000120200005
:101630008080400031049800400c9800500c9800c5
:10164000ca0007002800900050049800380090005d
:101650006004980000002600180c70000000eb00e9
:101660004f0578004f04be00000006000400fa0099
:10167000889fbe008a9fbe008c1f780000047800ff
:1016800001067800f80d90007800900080855500e4
:101690000808900080855500180890008085550046
:1016a00028089000808555003808900080855500f6
:1016b00048089000808555000002220090bf9f00de
:1016c00000032300a0bf9f00081090000028a30083
:1016d00015003a000b00e000130034000b05780001
:1016e0008a047800e20f550001003600290020002e
:1016f000c801900009017800ee8057005800900062
:1017000003000100500498000000e0008c0032004b
:101710006808900009004000600c98000905550019
:101720004240a900eeff3c00780190000200e0007a
:101730000c003400c80190008c0078005800900024
:1017400003000100500498008080eb000000e000de
:101750007c003200e8089000780090000080400093
:10176000600c9800880c90000900e0001100340023
:1017700009057800e28f5400010036002a0020009d
:10178000c80190000a017800ec80570058009000d2
:1017900003000100500498000000e00068003200df
:1017a000680890000a004000600c98008a84540089
:1017b000edff3700180990000200e0000c00340033
:1017c000c8019000e800900058009000030001005c
:1017d000500498008080eb000000e00059003200c7
:1017e000e80890001808900000804000600c980005
:1017f000a80c90000900e0001100340009057800f1
:10180000e28f5400010036002a002000c801900039
:101810000a017800ec805700580090000300010096
:10182000500498000000e000450032006808900075
:101830000a004000600c98008a845400edff3700d5
:10184000380990000200e0000e003400e80090002b
:101850001808900080804000c80190005800900057
:1018600003000100500498008080eb000000e000bd
:1018700034003200e80890003808900000804000f2
:10188000600c9800c80c90000900e00011003400c2
:1018900009057800e28f5400010036002a0020007c
:1018a000c80190000a017800ec80570058009000b1
:1018b00003000100500498000000e0002000320006
:1018c000680890000a004000600c98008a84540068
:1018d000edff3700081090008000eb000028a30007
:1018e000180032000b00e000160034008b04780072
:1018f00009057800e28f5400010036002a0020001c
:10190000c80190000a017800ee805700580090004e
:1019100003000100500498000000e00008003200bd
:10192000680890000a004000600c98008a84540007
:101930004240a900eeff3c008000eb0001003700b0
:101940008080eb00010078004f0678004f05be0054
:101950004f04be000080fa00000006000108780075
:101960000000060080d5200061003700881f780045
:10197000688f20001804e00003003a00f9ff070018
:1019800020c0b300004c78004f047800000006002f
:10199000889fbe0000047800080078003afe070027
:1019a000800478000004200018006000020032006b
:1019b000280090005a0007000000eb002004980067
:1019c000384090000004e000050035000000fb00f6
:1019d00030fb07000000e000010032008084eb00d3
:1019e000181090000000e0000800320074fb0700af
:1019f0000000e000010032008084eb00181090002d
:101a0000470007000000eb001014980000082000b9
:101a100018006000150032000001eb006000b80003
:101a2000838720000202d00063027a00880f5200f0
:101a300005003a000000400081804800008041001d
:101a40000008eb000600370061004000e08048001d
:101a50000201e800e80f5000e08f5800f0ff3a0064
:101a6000080078002e0007000e003700000c7800f8
:101a700000c0eb00304498006002200008004000e5
:101a8000200498004004980050049800400c9800ee
:101a900060049800500c9800700498007600440090
:101aa000000c9800090078004f04be0000000600fa
:101ab000881f78000004eb006140b800e2ff2f00af
:101ac000f3ff2f00b5000700628820006200780055
:101ad0000000e00001003200adff07000804e8004c
:101ae000e80f5400f4ff3a004f04780000000600ad
:101af000010020000100e000080032000100800029
:101b00000100e000050032008100e90001008800ca
:101b10008100d0000200800000b1780000000600c3
:101b20000000e0002f003200c0017800e38f510078
:101b30002c0036000308a3002a003a0091478000d9
:101b40000100e00002003200810f5000040031006b
:101b50001100980090478800160037008200780036
:101b6000110190000200e00002003200800f5100dd
:101b7000faff39001102780084824000850f50007e
:101b800018003900808f520003003a008308420099
:101b900001007800070037000200e0000300320077
:101ba00083014000830f51000e003900120098009d
:101bb00090009800900090000100e00009003200c1
:101bc00010014000828f500006003a00028f200072
:101bd0000009eb001001780011084100910090000d
:101be0001100980000000600889fbe0000047800e5
:101bf000814780000100e00002003200010078000f
:101c00000d00370091478000208f2000040037002e
:101c1000910f5400250036000180e80091009000eb
:101c20000100e000faff3a0010003700920f540064
:101c30001e0036000280e800100178000200e0007b
:101c4000faff3a001101780091478000208f2000b0
:101c500004003700910f5400140036000180e800a2
:101c600091009000828f5000faff3a00c94780002f
:101c7000888f540001003100880478000900780042
:101c8000360007000000e00004003a00888f54008e
:101c9000050032008904d100f5ff370009187800eb
:101ca0009fff0700d2ff37000000eb004f04be008b
:101cb00000000600881f7800630440000800a100af
:101cc0008000eb00800f540021003600e30f540029
:101cd00001003e004800200008007800c2ff070015
:101ce0008000eb000000e000190032009000780056
:101cf0009101780064815100880f51000300310088
:101d000011019000020878000700370008814000a8
:101d100002087800910190001301980010017800ea
:101d20001109140088087800100178000000eb0009
:101d30000200e00004003200920190000300e00085
:101d4000010032000280e800804788008180e800be
:101d5000010078004f047800000006008000780041
:101d60000000eb000100e0000500340001007800f5
:101d70009cfa0700e10f400001003a000000eb0070
:101d80000000060000c0da000000060000c0da0013
:101d90000000060000c0da0000000600020ab900d8
:101da000001bb9000200b80081004200810043001e
:041db0000000060029
:020000040000fa
:101db40076310000392e0000342e0000392e000048
:101dc400300000000a0d00004d4d0000432d0000be
:101dd400323000003020000064630000206d0000f9
:101de4006f7400006f720000206300006f6e0000cb
:101df400747200006f6c00006c65000072200000bb
:101e040074650000737400002076000065720000a1
:101e1400736900006f6e000020250000730000004d
:101e24000a0d000072650000636500006976000019
:101e3400656400003a200000000a00000d00000064
:101e4400647500007479000000640000757400007b
:101e5400792000006e2000007365000074200000eb
:101e64006475000074790000206300007963000049
:101e74006c650000203c00006e2d000064750000bd
:101e84007479000020630000796300006c65000031
:041e94003e0000000c
:020000040000fa
:101e98000c00fa0040079800510798004e01900086
:101ea800de0190000000200001f82300cbfa0700b3
:101eb800008fbe00000020000108240020079800c1
:101ec800310798001e02be002e009000be00900050
:101ed8000001be000400be0074fb07000001be0044
:101ee80061fa07000001be0000c22b00e1c3240014
:101ef800bafa0700fffa07000000780000f0a10016
:101f08000000e90000f0a10000f0a100220e80000e
:101f1800010028008100610001007000200e880087
:101f28000080fa00000006000000fa00c1e1a900e4
:101f3800c1a1a900010e8000f0f02f000080600010
:101f4800000e8800010e800030ff2f000080600026
:101f58000020a000000e8800010e8000c0ff2f00a6
:101f6800008060000010a000000e880070712b0037
:101f7800118d2300c6ff0700c621ef00c901a80084
:101f8800c921a800c941a800c8a1a800c8c1a800c3
:101f9800ca41a8000200200003f02300100020001e
:101fa8000a0007000200200003e8230020002000a8
:101fb800060007000200200003f423003000200080
:101fc800020007000080fa00000006000e00fa0078
:101fd800881f780040079800520798006307980008
:101fe80018c0b3006011b8005e009000ee009000c9
:101ff800bcfa07000000e000010035000044eb00d7
:102008000804e000040032006000b800500798009f
:10201800610798000f00370018c0b30002002000c5
:1020280003f823005e009000ee009000affa07006e
:102038000000e00001003c000044eb000804e00060
:10204800040032000000200001f823005007980027
:102058006107980072712b00138d23005e009000b9
:10206800ee00900011fb07000001be0000002000f8
:1020780001f8230059fa0700008fbe000000200075
:102088000108240020079800310798004e009000ae
:10209800e20f500014003200e30f5000220032001b
:1020a800e10f500030003a001e02be002e009000e2
:1020b800be0090000001be000400be00fbfa07004d
:1020c8000001be0000c22b00e1c3240043fa070050
:1020d80088fa07000000780000f0a1000000e9007d
:1020e800b00e8800200037001e02be002e009000af
:1020f800be0090000001be000400be00ebfa07001d
:102108000001be0000c22b00e1c3240033fa07001f
:1021180078fa07000000780000f0a1000000e9004c
:10212800c00e8800100037001e02be002e0090006e
:10213800be0090000001be000400be00dbfa0700ec
:102148000001be0000c22b00e1c3240023fa0700ef
:1021580068fa07000000780000f0a1000000e9001c
:10216800d00e8800000000004f0478000080fa00bc
:10217800000006000a00fa0030079800014f980096
:10218800be009000010f78001e00780000c090008b
:102198000040e800f043b200304798001e00780085
:1021a80010c0900040479800be4090004e409000fc
:1021b80080cf500003003a000040eb002047980011
:1021c8000b00370010c0b300204798003e00900075
:1021d80000c090000080fb00be0090000e499000f7
:1021e80082707800be4090003e00900001c09800c8
:1021f8002e4090000080fa00000006000200fa005d
:10220800000f78001e00780080c09000e0c3b30083
:1022180080cf50000200360010c0b3000100370024
:102228000040eb000080fa00000006000200fa00ff
:10223800000f78001e0078008040eb0011c0980065
:102248001e0078008040eb0001c098000080fa0072
:10225800000006000400fa00100798009e00900095
:10226800010f78001e00780000c09000e14f500078
:10227800120036001e00780000c0900080c0e900ff
:102288001e00780001c098001e00780000c0900071
:102298000080fb009e0078000041eb00827078000f
:1022a8001e00780000c090000080fb000000e800dd
:1022b8009e0078000041eb00827078000080fa00f0
:1022c800000006000200fa00000f78001e007800e7
:1022d80000c090000080fb000000e9009e0078002c
:0c22e800614078000080fa000000060051
:020000040000fa
:1022f400880800004200000000000000e40800001c
:102304000c00000002000000228f27008ff413004d
:102314000000000000000000f408000002000000bb
:102324000200000001000000000800008800000016
:102334000200000001000000002608002708260013
:1023440008260800260826000816080000000000d9
:102354000000000000000000000000000000000079
:1023640000000000000000000002080001014e000f
:10237400084f08004e084e00084e08004e083e0064
:102384000800000000000000000000000000000041
:102394000000000000000000000000000000020037
:1023a40008020200760877000876080076087600ae
:1023b4000876080066080000000000000000000025
:1023c4000000000000000000000000000000000009
:1023d4000000000000082800085008000000000069
:1023e400000000000000000000000000ca08000017
:1023f4001a00000002000000686a6c00747a4c0045
:1024040000000100000200000400080000100000a9
:10241400000020002b2d230030000000f6080000ef
:102424000200000000000000f808000002000000a4
:102434000200000004000000f00800000400000096
:1024440000000000fa080000020000000000000084
:042454000000000084
:020000040000fa
:102458000000fa000080eb0060198800113a800043
:10246800f00d20000081600060042000710520004c
:1024780023742000804978008149780082497800d7
:102488002135800000fe2f00008060000000a000c1
:1024980020358800f134800000fe2f0000806000a5
:1024a8004001b300f0348800e134800000fe2f00c2
:1024b800008060003001b300e0348800e13480001f
:1024c800f00f2e00808060000020210001007000c5
:1024d800e03488006135800000fe2f000080600035
:1024e8008001b30060358800a1368000f00f2e000f
:1024f800808060000070200001007000a036880015
:1025080031368000f00f2e000080600000b0a0007f
:10251800303688000136800000fe2f000080600001
:102528003000b30000368800b136800000fe2f006e
:1025380000806000b000b300b0368800b13680007b
:10254800f00f2e008080600000a0200001007000c5
:10255800b0368800103a8000000178000260a000c0
:102568006004200071052000237420008049780051
:1025780081497800824978000080fa00000006004e
:102588000000fa00b2ff0700c942a900c962a90009
:10259800c982a900c9c2a900c142a9006f000700e9
:1025a80061fe07000080fa00000006000000fa0043
:1025b80010002000a047880047000700f0ff070030
:1025c800c542a80000842700d11720007600070024
:1025d800a0ed2800801f780040ee2800801f7800ba
:1025e8003efa0700e487570000b42400c104200025
:1025f8006d000700c542a90000b42400c1042000f2
:10260800690007008560a9009560a8000000000027
:1026180000000000000000000000000000000000b2
:102628000000000000000000808820000100070072
:10263800f6ff37000400fa00100798001e0090000b
:1026480020ff0700ed4f500020003a00c542a800c7
:1026580000352c00010020005300070020f128005d
:10266800801f78001dfa07008f87e9000040eb0003
:10267800004f7800060037001e80fb009e00900087
:10268800614078000080fb00def907001e4fe8007b
:102698001e00900000c090009e4f5000f6ff3e00c4
:1026a800f0f12800801f78000cfa07008f87e900f6
:1026b8001e009000ddfe0700c542a90000352c0071
:1026c800010020003800070001003700000000006a
:1026d8000080fa00000006000000fa0060022000f6
:1026e800303a88004427ef0032002000800720009d
:1026f800a1092000337420008049780081497800be
:102708008249780012002000600420007105200032
:102718002374200080497800814978008249780034
:1027280000000000113a800000002700808060004f
:1027380000002300808f5000faff3a0000000000dc
:10274800113a800000022000008060000000e000d4
:10275800fbff32000080fa00000006000000fa00cb
:10276800000520004011880021e2a8002342a800ab
:1027780041058000f0ff28008080600000002500ef
:102788000100700040058800020420008000eb0072
:102798008088200094f9070080882000a3fe0700a5
:0827a8000080fa0000000600a9
:020000040000fa
:1027b000f03fb1000180b10006003500ee030900d2
:1027c00000000000403fb1000180b100fbff3d0070
:1027d0001000b000203fb00002003500008009006a
:0827e0000000000000000600eb
:020000040000fa
:1027e8000000fa0010c0b3000080fa0000000600e4
:020000040000fa
:0200000401f009
:04000c008000000070
:020000040000fa
:0200000401f009
:0400100045000000a7
:020000040000fa
:0200000401f009
:040014005f00000089
:020000040000fa
:0200000401f009
:04001c00ddff000004
:00000001FF
